:1000000017C1000046C1000044C1000042C1000009
:1000100040C100003EC100003CC100003AC10000E8
:1000200038C1000036C1000034C1000032C10000F8
:1000300030C100002EC100002CC100002AC1000008
:1000400028C1000026C1000024C1000022C1000018
:1000500020C100001EC100001CC100000C94A00DB6
:1000600018C100000C9476110C94AC1112C1000060
:1000700010C100000EC100000CC100000AC1000048
:1000800008C1000006C1000004C1000002C1000058
:1000900000C10000FEC00000FCC0000039C5000027
:1000A000F8C00000F6C00000F4C00000F2C000007C
:1000B000F0C00000EEC00000ECC00000EAC000008C
:1000C000E8C00000E6C00000E4C00000E2C000009C
:1000D000E0C00000DEC00000DCC00000DAC00000AC
:1000E000D8C00000FA0EFD0EEC0EF00EF60E340F26
:1000F000010F050F0B0F0F0F130F190F1D0F210FFE
:10010000340F270F2B0F2F0F00000A0B02090C0DC5
:100110000E080703040100000000000000000000BA
:1001200000000000000000000000000000000000CF
:10013000000000001211100000000000000000008C
:1001400000000000000000000000000000000102AC
:1001500010202008081020401020408002010201D9
:100160000804020101020408102040808040201091
:1001700008040201800402018040201008040201EA
:100180000804020101020408102040800102040852
:10019000102040800505050507050808080802022B
:1001A00002020A0A08080404040401010101010111
:1001B00001010303030303030303040707070C0CF4
:1001C0000C0C0C0C0C0C02020202060606060606BB
:1001D00006060B0B0B0B0B0B0B0B00002000230078
:1001E000260029002C002F0032000001000003012E
:1001F0000601090100002200250028002B002E0026
:100200003100340002010000050108010B0100006B
:100210002100240027002A002D00300033000101B6
:100220000000040107010A01A703E704DE11D70358
:1002300011241FBECFEFD1E2DEBFCDBF00E00CBF67
:1002400013E0A0E0B2E0E8EAFDE200E00BBF02C08C
:1002500007900D92AE3CB107D9F725E0AEECB3E0C4
:1002600001C01D92AD39B207E1F712E0CEE2D2E053
:1002700000E006C022970109FE010BBF0E94A014F6
:10028000C832D10780E00807A9F70E9438140C94FF
:10029000C316B6CE87EF93E00E9445138DEF93E02F
:1002A0000E94451383E094E00C94451388ED93E09D
:1002B000D8D540E060E088ED93E0DDD56CE772E0F2
:1002C00088ED93E00C946D12CF93C82F6CE872E028
:1002D0008CEF94E00E946D12CA3028F460E38CEF3A
:1002E00094E00E946E124AE050E06C2F8CEF94E094
:1002F000CF910C943F138F929F92AF92BF92CF9267
:10030000DF92EF92FF920F931F936B017C0120E825
:1003100031E541E050E00E94781489019A014B01D7
:100320005C014AE050E0B8018CEF94E00E942C138D
:10033000C501B40120E13EE040E050E00E947814A5
:10034000822FC2DF8CE3882E912CA12CB12CC70107
:10035000B601A50194010E947814162FCA01B901B3
:10036000A50194010E947814862FAEDF812FACDFA7
:100370008CEF94E01F910F91FF90EF90DF90CF9062
:10038000BF90AF909F908F900C947512CF93DF9396
:1003900000D000D0CDB7DEB762E08EEC93E00E94D3
:1003A0008E0CBC0183E094E00E94DE132EE241E05B
:1003B00062E08EEC93E00E945E0BBC0187EF93E05D
:1003C0000E94DE1362E08EEC93E00E94F20ABC0110
:1003D0008DEF93E00E94DE1341E060E088ED93E052
:1003E0004AD567EF73E0CE0101960E94D6136EE8FE
:1003F00072E0CE0101960E941E14BC0188ED93E0CC
:100400000E945F12CE0101960E9445136DEF73E0CA
:1004100088ED93E00E945F120E94110D6CDF6DEF7A
:1004200073E08CEF94E00E94781226960FB6F89451
:10043000DEBF0FBECDBFDF91CF91089588ED93E071
:1004400010D540E060E088ED93E015D561E972E0F9
:1004500088ED93E00E946D1299DF42E060E088ED44
:1004600093E009C50F931F930E94EA0D609309045E
:1004700070930A0480930B0490930C0486E30E940B
:10048000BD0E20910A028091090490910A04A09166
:100490000B04B0910C0440910D0450910E04609136
:1004A0000F0470911004841B950BA60BB70B883EAC
:1004B0009340A105B105E0F02130D1F0BFDF80917C
:1004C000F1039091F20301969093F2038093F1036C
:1004D0008091090490910A04A0910B04B0910C043E
:1004E00080930D0490930E04A0930F04B093100416
:1004F00080910A02882339F18091090490910A04BD
:10050000A0910B04B0910C0440910D0450910E0485
:1005100060910F04709110048C019D01041B150B58
:10052000260B370BB901A801483B5B4061057105FB
:1005300050F010920A0280930D0490930E04A09341
:100540000F04B09310041F910F9108950F931F9300
:10055000CF93DF9387E00E94A30FEC0190931C04DC
:1005600080931B0481309105B1F580911504909121
:100570001604892B81F50E94EA0D0091F303109176
:10058000F4032091F5033091F603601B710B820B8D
:10059000930B0091060210910702209108023091FE
:1005A00009020617170728073907A8F480912104C4
:1005B00090912204019709F0BBC01092220410927E
:1005C00021040E94EA0D6093F3037093F403809377
:1005D000F5039093F6036091210488E00E946E0F6A
:1005E00080911B0490911C04909316048093150431
:1005F00086E00E94A30FEC0190931A0480931904E3
:1006000081309105B1F58091130490911404892BE8
:1006100081F50E94EA0D0091F3031091F4032091FB
:10062000F5033091F603601B710B820B930B009165
:100630000602109107022091080230910902061764
:10064000170728073907A8F480911F049091200408
:10065000019709F072C01092200410921F040E94AA
:10066000EA0D6093F3037093F4038093F503909382
:10067000F60360911F0489E00E946E0F80911904B7
:1006800090911A04909314048093130485E00E94BF
:10069000A30FEC0190931804809317048130910507
:1006A000A9F58091110490911204892B79F50E948B
:1006B000EA0D0091F3031091F4032091F5033091BA
:1006C000F603601B710B820B930B009106021091D5
:1006D0000702209108023091090206171707280720
:1006E0003907A0F480911D0490911E04019751F5E3
:1006F00010921E0410921D040E94EA0D6093F303F1
:100700007093F4038093F5039093F60360911D04B6
:100710008AE00E946E0F80911704909118049093C4
:10072000120480931104DF91CF911F910F910895CE
:10073000D0932204C093210444CFD0932004C093CB
:100740001F048DCFD0931E04C0931D04D5CF8F926C
:10075000AF92CF92EF920F936EEB73E083E094E051
:100760000E94AC136EEB73E08DEF93E00E94AC132C
:100770006EEB73E087EF93E00E94AC1397E0892E55
:1007800026E0A22E35E0C32E44E0E42E00E021E076
:1007900042E067E288ED93E0A6D445E164E18EECA7
:1007A00093E00F91EF90CF90AF908F905EC572CD98
:1007B00062E087E00E94350F62E086E00E94350F1C
:1007C00062E085E00E94350F61E088E00E94350F0D
:1007D00061E089E00E94350F61E08AE00E94350FF8
:1007E00020E044E064E188ED93E0F5D440E050E09F
:1007F00063E088ED93E0EDD360EA88ED93E0FDD30C
:1008000088ED93E033D30E94EA0D60930D0470935A
:100810000E0480930F049093100426E040E855E204
:1008200060E070E08CEF94E00E9416118EEC93E093
:10083000EAD43CCD8CEF94E00E940710892B49F05C
:100840008CEF94E00E942010682F8CEF94E00E94BF
:10085000881208DE7BCE8091530490E020915404EE
:10086000821B910908952091540480915304281704
:1008700050F4E22FF0E0EB5AFB4F808190E02F5FC5
:100880002093540408958FEF9FEF0895E09154044E
:1008900080915304E81730F4F0E0EB5AFB4F80816D
:1008A00090E008958FEF9FEF08950895CF92DF9223
:1008B000EF92FF920F931F93CF93DF937C01CB01B5
:1008C0008A0120912F04222389F0EB016B01C40ED1
:1008D000D51ECC15DD0561F06991D701ED91FC9134
:1008E0000190F081E02DC7011995F3CF642FE7D077
:1008F000C801DF91CF911F910F91FF90EF90DF9092
:10090000CF900895CF93DF931F92CDB7DEB7698361
:1009100020912F042223D1F020913004203240F086
:1009200021E030E0FC013383228380E090E014C0BA
:1009300080913104E82FF0E0EE5CFB4F99819083C9
:100940008F5F809331048093300404C061E0CE0156
:100950000196B5D081E090E00F90DF91CF9108959E
:10096000FC011382128248EE53E060E070E04483A1
:1009700055836683778389EA92E091838083089523
:1009800010925404109253041092310410923004C7
:1009900021C081E080932F046093520410923104AF
:1009A0001092300408950F93062F21E040913004F7
:1009B00062E374E0809152042BD0109231041092C3
:1009C000300410922F040F91089561E0ECCF83E280
:1009D00094E0C6CF1092E20481E08093E00410928C
:1009E000DF0461E084E10E946E0F61E085E10E9416
:1009F0006E0FE9EBF0E080818E7F808380818D7FB8
:100A0000808388E48093B80085E48093BC000895D7
:100A10000F93413208F04AC09091E2049111FCCF4B
:100A200092E09093E2040093E0049FEF90937504AA
:100A30001092BA044093B904FB016BEB74E0DB0144
:100A40009A2F961B941718F491919D93F9CF1092B9
:100A5000E1049091E104880F892B8093E104809157
:100A6000DF04813061F41092DF048091E10480930F
:100A7000BB008091BC0083FDF8CF85EC01C085EE02
:100A80008093BC00222321F08091E2048230E1F3C4
:100A9000809175048F3F61F080917504803251F030
:100AA00080917504803341F483E007C081E005C084
:100AB00080E003C082E001C084E00F9108956132BC
:100AC00098F42091E204243089F460939704FC01A7
:100AD00089E994E0DC012A2F281B261718F42191BC
:100AE0002D93F9CF80E0089581E0089582E0089584
:100AF00085ED8093BC008091BC0084FDFCCF1092FA
:100B0000E204089585EC8093BC001092E2040895FD
:100B10001F920F920FB60F9211240BB60F922F93C4
:100B20003F934F935F936F937F938F939F93AF9375
:100B3000BF93EF93FF938091B900887F803609F4CB
:100B40009DC070F5883209F45CC090F4803109F4DE
:100B500055C038F4882309F4F3C0883009F44EC036
:100B6000F2C0883109F44DC0803209F45EC0EBC098
:100B7000803409F469C050F4803309F456C08833D6
:100B800009F0E1C080937504BDDFDDC0803509F454
:100B90004FC0883509F45DC0883409F0D4C0D2C094
:100BA000883909F4C3C0A8F4883709F467C038F459
:100BB000883609F463C0803709F460C0C4C088383F
:100BC00009F4B4C0803909F45FC0803809F0BBC0B3
:100BD0005BC0803B09F482C038F4803A09F466C0F7
:100BE000883A09F47BC0AFC0803C09F4A3C0883CBC
:100BF00009F4A0C0883B09F486C0A5C08091E10437
:100C000010C09091BA048091B904981770F5E091E2
:100C1000BA0481E08E0F8093BA04F0E0E554FB4FF4
:100C200080818093BB0085EC82C0809375048AC06C
:100C3000E091BA0481E08E0F8093BA048091BB00EA
:100C4000F0E0E554FB4F80839091BA048091B904A1
:100C50006AC0E091BA0481E08E0F8093BA0480915B
:100C6000BB00F0E0E554FB4F80838091E0048111EC
:100C700069C081E08093DF0484EA5DC083E08093F3
:100C8000E20410927604CFCF80917604803208F08F
:100C90004DC0E091760481E08E0F809376048091C0
:100CA000BB00F0E0E958FB4F8083BDCF2BDF809184
:100CB0007604803230F4E0917604F0E0E958FB4F9E
:100CC00010826091760470E0E091DB04F091DC0426
:100CD00087E794E019951092760435C084E08093FC
:100CE000E2041092980410929704E091DD04F091D0
:100CF000DE04199580919704811105C081E08093ED
:100D0000970410929904E091980481E08E0F8093EB
:100D10009804F0E0E756FB4F80818093BB009091F0
:100D2000980480919704981708F47DCF85E8809304
:100D3000BC0009C085EC8093BC001092E20403C0A3
:100D400010927504D5DEFF91EF91BF91AF919F9105
:100D50008F917F916F915F914F913F912F910F9064
:100D60000BBE0F900FBE0F901F901895FC011282C2
:100D70008FEF8183108213820895FC018381882381
:100D800031F0611103C08FEF8183089511820895BE
:100D900083E294E0FEDD83E294E017DE91E08111CE
:100DA00090E0892F0895CF93DF93EC016A8383E26B
:100DB00094E0E6DD6A81CE01EBDF8B83882321F0AE
:100DC00083E294E050DD88838B8190E0DF91CF91C6
:100DD0000895CF93DF93EC018B81882391F0898173
:100DE0008095862388836A8183E294E0D2DD6881DE
:100DF00083E294E087DD83E294E0E7DD282F30E0B2
:100E000002C020E030E081E090E0232B11F080E090
:100E100090E0DF91CF91089508950895DC01ED9160
:100E2000FC910284F385E02D41E0199581E090E08A
:100E30000895FC011382128229EB32E03183208372
:100E40000895DC01ED91FC910084F185E02D6FEFB8
:100E50001994DC01ED91FC910284F385E02D40E0D2
:100E6000199461E0F6DF80ED97E01AC762E0F1DFE8
:100E700080ED97E015C7CF93DF93CDB7DEB7289706
:100E80000FB6F894DEBF0FBECDBF1D8220E42E83C7
:100E900034E13F8334E5388719822A8320E12B83AC
:100EA00020E52C83FC012781421710F04FEF420F01
:100EB000FC01308550E0FE01E40FF51F303121F4D4
:100EC000243011F4218101C02581260F2068622F72
:100ED00028960FB6F894DEBF0FBECDBFDF91CF913D
:100EE000B8CFFC016581262F246025836C60B1CFCB
:100EF000CF93DF93EC01423018F08C8188608C83B3
:100F00004F836887222329F0413019F48C81846053
:100F10008C8364E670E080E090E08BD66C8164FDA9
:100F20002EC0E881F9810284F385E02D42E063E080
:100F3000CE01199584E991E1B3D6E881F981028463
:100F4000F385E02D42E063E0CE01199586E990E05B
:100F5000A7D6E881F9810284F385E02D42E063E0C1
:100F6000CE01199586E990E09BD6E881F98102844B
:100F7000F385E02D42E062E0CE01199511C0606278
:100F8000CE0167DF84E991E18BD66C816062CE018E
:100F900060DF86E990E084D66C816062CE0159DF23
:100FA00086E990E07DD66C816062CE0152DF8CE3F1
:100FB00090E076D684E08D83CE0193DFCE0151DFC1
:100FC00082E08E8366E0CE0144DFCE01DF91CF91D7
:100FD00038CF21E001C0220F6A95EAF7DC011C96A8
:100FE0002C931C971A965C934E931997ED91FC9154
:100FF0000084F185E02D60E01994FC012485222312
:1010000091F081859285009719F4611105C006C0A1
:10101000019721F4611102C0258701C015866585FD
:10102000CF010E96D6CE08950F931F93CF93DF93E3
:10103000EC018C01025F1F4F6B85C801B4DE019784
:1010400051F461E0C80199DE1C8260E0C801C1DE94
:1010500081E090E002C080E090E0DF91CF911F91AD
:101060000F9108958F92AF92CF92EF920F93CF93FB
:10107000DF93CDB7DEB7FC01638714861586128631
:10108000118681E0982F01C0990F4A95EAF7928B5B
:10109000982F01C0990F2A95EAF7938B982F01C0DA
:1010A000990F0A95EAF7948B982F01C0990FEA944B
:1010B000EAF7958B982F01C0990FCA94EAF7968B9F
:1010C000982F01C0990FAA94EAF7978B01C0880F57
:1010D0008A94EAF7808FDF91CF910F91EF90CF90B4
:1010E000AF908F9008956F927F928F92AF92CF9230
:1010F000EF920F93CF93DF9300D0CDB7DEB73C01D3
:101100002B834A83698395DE89EC92E0F301918316
:101110008083C3010E962ADE2B814A816981C30137
:10112000A1DF0F900F900F90DF91CF910F91EF9073
:10113000CF90AF908F907F906F900895FF920F9314
:101140001F93CF93DF93EC01F62E8C01025F1F4FAC
:101150006A896F29C8013DDE6A8960956F21C801DF
:10116000DF91CF911F910F91FF9033CE20E030E0BF
:1011700050E060FF05C0FC01E20FF31F7589572B9B
:1011800066952F5F3F4F2430310599F7413011F4B8
:10119000FC014489FC016585652B642BCFCF0F933F
:1011A0001F93CF93DF93EC01142F062F0F70423063
:1011B00011F440E009C070E084E0759567958A9568
:1011C000E1F7CE01D3DF412F602FCE01DF91CF9128
:1011D0001F910F91CBCF0F931F93CF93DF9300D02D
:1011E000CDB7DEB78C012B834A8369831DDF2B814A
:1011F0004A816981C8010F900F900F90DF91CF91C4
:101200001F910F9175CEFC0181818431E1F48081C1
:101210008531C9F481E0818761E084E15FD661E0D6
:1012200085E15CD68091B9008E7F8093B900809172
:10123000B9008D7F8093B9008CE08093B80085E081
:101240008093BC000895118661E080810EC6FC0188
:101250008EED97E09683858381E08483838310827B
:101260001182128283E087830895FC0161834083A9
:1012700008950F931F93CF93DF931F92CDB7DEB7DF
:101280008C01262F61E0FC0181812983EED561E08C
:10129000F801818123D661E0F80180811FD660E0EA
:1012A000F80181811BD660E0F801808117D6298181
:1012B00041E0F801608181810F90DF91CF911F9112
:1012C0000F9169C6CF93DF93EC0161E08981CDD5A1
:1012D00060E0898103D661E0888100D661E0898180
:1012E000FDD560E08981DF91CF91BFC5CF93DF93BA
:1012F000EC0161E08981B9D560E08881EFD561E0DA
:101300008981ECD561E08881E9D560E08881E6D506
:1013100060E08981DF91CF91A8C5CF93DF93EC0185
:1013200061E08981A2D560E08881D8D560E08981BB
:10133000D5D561E08881D2D560E08881CFD560E0E5
:101340008981DF91CF9191C5CF93DF93EC0160E06C
:1013500089818BD561E08881C1D58981F4D50197D8
:10136000E1F360E08881DF91CF91B8C5FF920F93E0
:101370001F93CF93DF93EC0160E0898176D507E07E
:1013800010E0F12C61E08881A9D58981DCD599270D
:10139000002E01C0880F0A94EAF7F82A81E090E055
:1013A0007FD460E088819AD50150110958F78F2DBC
:1013B000DF91CF911F910F91FF9008950F931F938D
:1013C000CF93DF931F92CDB7DEB78C01262F61E05C
:1013D000FC018181298349D5298141E0F80160819F
:1013E00081810F90DF91CF911F910F91D4C50F9301
:1013F0001F93CF93DF93EC018985882309F44DC0B7
:1014000084EE8093BC008091BC0087FFFCCF80ED10
:101410008093BB0084EC8093BC008091BC0087FF6C
:10142000FCCF1092BB0084EC8093BC008091BC0088
:1014300087FFFCCF84EE8093BC008091BC0087FFC7
:10144000FCCF81ED8093BB0084EC8093BC00809145
:10145000BC0087FFFCCF80E090E034EC3093BC0010
:101460002091BC0027FFFCCF2091BB00FE01E80FBC
:10147000F91F228301968730910581F784E88093D4
:10148000BC008091BC0087FFFCCF84E98093BC0046
:10149000DF91CF911F910F91089560EDCE01E9DEAC
:1014A000CE0152DF60E0CE0189DFCE014DDF61ED7C
:1014B000CE01DFDECE0148DF00E010E0CE0156DFD6
:1014C000FE01E00FF11F8283CE010630110511F0FD
:1014D00024DF01C00BDF0F5F1F4F0730110571F7CD
:1014E000CE01DF91CF911F910F91ECCE962F969563
:1014F000969596959E70292F220F220F290F862FE1
:101500008F70820F0895962F9F7067FF09C065FB4B
:10151000662760F9892F2CE0629F800D11240895C1
:101520006073669566956695862F880F880F860F7F
:10153000890F08950F931F93CF93DF93CDB7DEB735
:1015400060970FB6F894DEBF0FBECDBF8C01CE0101
:1015500009967DDEC8014BDFF8016281C801C6DF54
:101560008B87F8016381C801C1DF8A87F801648134
:10157000C801C9DF8987F8018581888B6681C80128
:10158000B5DF8C87F8016781C801B0DF8D87F8016E
:101590008085982F92959F708F70FAE09F9F800DA5
:1015A000112490E08053984F9F878E8788E0FE013A
:1015B0003996DE01119601900D928A95E1F7298105
:1015C0003A814B815C816D817E818F8198856096A7
:1015D0000FB6F894DEBF0FBECDBFDF91CF911F9144
:1015E0000F910895FF920F931F93CF93DF93CDB781
:1015F000DEB728970FB6F894DEBF0FBECDBF8C01C3
:10160000F62ECE01019623DEC80194DF3A834B8388
:101610002A3010F480E305C0822F6AE00E9445144E
:10162000805D809316023AE0822F632F0E9445145A
:10163000905D909317028AE3809318022A812A30E2
:1016400010F480E305C0822F632F0E944514805D53
:10165000809319023AE0822F632F0E944514905D17
:1016600090931A028AE380931B0281E0F81203C070
:1016700010921B0215C02B812A3010F480E305C0A4
:10168000822F632F0E944514805D80931C02822F5D
:101690006AE00E944514905D90931D0210921E0214
:1016A00086E192E028960FB6F894DEBF0FBECDBF5C
:1016B000DF91CF911F910F91FF900895DF92EF92EC
:1016C000FF920F931F93CF93DF93CDB7DEB7289789
:1016D0000FB6F894DEBF0FBECDBF8C01E62ED42E20
:1016E000F22ECE010196B3DDC80124DF262F5C83E4
:1016F0006D837E838F8382E0D816F1F083E0D81665
:1017000009F46FC081E0D812F9C05A3010F480E3B8
:1017100005C0852F6AE00E944514805D80930B020E
:101720003AE0852F632F0E944514905D90930C0240
:10173000F0920D022D816BC0EE81FF8181E0E816F1
:1017400009F4C0C0CF0168EE73E00E946514605DCB
:1017500060930B0204E610E0B8010E946514605D1E
:1017600060930C02CF01B8010E9465140AE010E0FA
:10177000B8010E946514605D60930D02CF01B8014D
:101780000E946514805D80930E02F0920F02E2E0E9
:10179000F0E02D81E55FFD4F2A3010F480E305C0B5
:1017A000822F6AE00E944514805D83833AE0822F95
:1017B000632F0E944514905D9483F5822C812A301A
:1017C00010F480E305C0822F632F0E944514805DD2
:1017D0008683822F6AE00E944514905D978310866D
:1017E0008DC06A3010F480E305C0862F6AE00E9445
:1017F0004514805D80930B023AE0822F632F0E9494
:101800004514905D90930C02F0920D022C812A30C9
:1018100010F480E305C0822F632F0E944514805D81
:1018200080930E02822F6AE00E944514905D90938F
:101830000F02F09210022E813F8181E0E8121CC05D
:10184000205D37402A30310524F480E38093110273
:1018500008C0C9016AE070E00E946514605D609391
:101860001102C9016AE070E00E946514805D8093F6
:1018700012021092130242C0C90168EE73E00E9486
:101880006514605D60931102E4E6F0E0BF010E9420
:101890006514605D60931202C901BF010E94651466
:1018A000EAE0F0E0BF010E946514605D60931302FE
:1018B000C901BF010E946514805D809314021092DB
:1018C00015021CC0E05DF740EA30F10524F480E326
:1018D00080930B0207C0CF016AE070E0F6D7605D2D
:1018E00060930B02CF016AE070E0EFD7805D8093D8
:1018F0000C02F0920D02E0E0F0E04BCF8BE092E0C2
:1019000028960FB6F894DEBF0FBECDBFDF91CF9102
:101910001F910F91FF90EF90DF900895FF920F932A
:101920001F93CF93DF93CDB7DEB7A4970FB6F8948C
:10193000DEBF0FBECDBF8C01F62E8EE0E0E3F2E0FD
:10194000DE011F9601900D928A95E1F78EE0EEE39D
:10195000F2E0DE01119601900D928A95E1F7CE0139
:101960004D9675DCC801E6DD2D8F3E8F4F8F58A355
:1019700069A37AA38BA39CA3E92FF0E081E03197C0
:10198000EE0FFF1FF81209C081E090E08C0F9D1F41
:10199000E80FF91F8081918108C081E090E08C0FF1
:1019A0009D1FE80FF91F86859785A4960FB6F894BA
:1019B000DEBF0FBECDBFDF91CF911F910F91FF9082
:1019C00008950F931F936093EF047093F004809336
:1019D000F1049093F20400911F02109120022091D3
:1019E000210230912202060F171F281F391F009372
:1019F000E7041093E8042093E9043093EA0482E0BA
:101A000090E09093E6048093E504E4D06093EB04C7
:101A10007093EC048093ED049093EE041F910F916A
:101A20000895CF92DF92EF92FF920F931F93D2D03F
:101A3000C090EB04D090EC04E090ED04F090EE0444
:101A40006C197D098E099F090091EF041091F00433
:101A50002091F1043091F204683E734081059105B4
:101A6000D8F00F5F1F4F2F4F3F4F0093EF0410939D
:101A7000F0042093F1043093F20448EEC40E43E0E6
:101A8000D41EE11CF11CC092EB04D092EC04E09255
:101A9000ED04F092EE04CBCF8091E7049091E8043E
:101AA000A091E904B091EA04081719072A073B0737
:101AB000C0F1E091E304F091E404309791F11995BD
:101AC000611571058105910511F07BDF2AC08091B8
:101AD0001F0290912002A0912102B0912202409118
:101AE000EF045091F0046091F1047091F204840FBE
:101AF000951FA61FB71F8093E7049093E804A09357
:101B0000E904B093EA0481E090E02091E50430918B
:101B1000E604232B11F480E090E09093E604809398
:101B2000E5046091EF047091F0048091F1049091CC
:101B3000F2041F910F91FF90EF90DF90CF900895E6
:101B40001F920F920FB60F9211242F933F938F93F2
:101B50009F93AF93BF938091F4049091F504A0916B
:101B6000F604B091F7043091F30423E0230F2D37EE
:101B700020F40196A11DB11D05C026E8230F029691
:101B8000A11DB11D2093F3048093F4049093F504F8
:101B9000A093F604B093F7048091F8049091F904AF
:101BA000A091FA04B091FB040196A11DB11D809390
:101BB000F8049093F904A093FA04B093FB04BF9146
:101BC000AF919F918F913F912F910F900FBE0F90EA
:101BD0001F9018952FB7F8946091F4047091F50454
:101BE0008091F6049091F7042FBF08953FB7F894C1
:101BF0008091F8049091F904A091FA04B091FB044B
:101C000026B5A89B05C02F3F19F00196A11DB11D57
:101C10003FBF6627782F892F9A2F620F711D811D74
:101C2000911D42E0660F771F881F991F4A95D1F7D3
:101C300008958F929F92AF92BF92CF92DF92EF92D0
:101C4000FF926B017C01D2DF4B015C01C114D10416
:101C5000E104F104E1F018D6C9DF681979098A09AD
:101C60009B09683E73408105910580F321E0C21A0B
:101C7000D108E108F10888EE880E83E0981EA11CC7
:101C8000B11CC114D104E104F10431F7DFCFFF909E
:101C9000EF90DF90CF90BF90AF909F908F9008957E
:101CA0008230910538F0880F991F880F991F05978A
:101CB0000197F1F70895789484B5826084BD84B566
:101CC000816084BD85B5826085BD85B5816085BD37
:101CD000EEE6F0E0808181608083E1E8F0E0108250
:101CE000808182608083808181608083E0E8F0E091
:101CF000808181608083E1EBF0E08081846080837B
:101D0000E0EBF0E0808181608083E1E9F0E08081B8
:101D100082608083808181608083E0E9F0E080815F
:101D200081608083E1EAF0E080818260808380814D
:101D300081608083E0EAF0E0808181608083E1E27D
:101D4000F1E0808182608083808181608083E0E235
:101D5000F1E0808181608083EAE7F0E08081846047
:101D600080838081826080838081816080838081A4
:101D7000806880831092C1000895863308F08653EE
:101D800020917B00982F9870277F922B90937B0057
:101D900087702091230290E4299F90011124822BC7
:101DA00080937C0080917A00806480937A00809197
:101DB0007A0086FDFCCF809178002091790090E038
:101DC000922B089590E0FC013197E231F10508F083
:101DD0004BC0EE58FF4FAEC5809180008F7703C097
:101DE000809180008F7D8093800008958091800095
:101DF000877FF9CF84B58F7702C084B58F7D84BD8E
:101E000008958091B0008F7703C08091B0008F7DDE
:101E10008093B0000895809190008F7707C08091E3
:101E200090008F7D03C080919000877F8093900009
:101E300008958091A0008F7707C08091A0008F7DCA
:101E400003C08091A000877F8093A00008958091B7
:101E500020018F7707C0809120018F7D03C0809182
:101E60002001877F809320010895CF93DF9390E036
:101E7000FC01E25BFE4F2491FC01EC56FE4F849185
:101E8000882349F190E0880F991FFC01E25FFD4F24
:101E9000A591B4918C509E4FFC01C591D4919FB7F0
:101EA000611108C0F8948C91209582238C938881CD
:101EB00082230AC0623051F4F8948C91322F30950D
:101EC00083238C938881822B888304C0F8948C911F
:101ED000822B8C939FBFDF91CF9108950F931F9317
:101EE000CF93DF931F92CDB7DEB7282F30E0F901F3
:101EF000E85FFE4F8491F901E25BFE4F1491F90116
:101F0000EC56FE4F04910023C1F0882319F0698339
:101F100059DF6981E02FF0E0EE0FFF1FEC50FE4F1C
:101F2000A591B4919FB7F8948C91611103C010955D
:101F3000812301C0812B8C939FBF0F90DF91CF91A4
:101F40001F910F910895CF93DF93282F30E0F9016F
:101F5000E85FFE4F8491F901E25BFE4FD491F901F5
:101F6000EC56FE4FC491CC2389F081112BDFEC2F6E
:101F7000F0E0EE0FFF1FE652FE4FA591B4912C91B9
:101F80002D2381E090E021F480E002C080E090E029
:101F9000DF91CF910895BF92CF92DF92EF92FF929F
:101FA0000F931F93CF93DF93C82ED62EB42EC7E086
:101FB000D0E0022F10E087E0E82EF12CB1100AC02B
:101FC000F701EC1BFD0BB80102C075956795EA950A
:101FD000E2F707C0B8010C2E02C0759567950A9408
:101FE000E2F7617077278C2D79DF61E08D2D76DF48
:101FF00060E08D2D73DF219708F7DF91CF911F915E
:102000000F91FF90EF90DF90CF90BF900895FC016B
:10201000818D228D90E0805C9F4F821B91098F7390
:1020200099270895FC01918D828D981731F0828D4A
:10203000E80FF11D858D90E008958FEF9FEF0895D3
:10204000FC01918D828D981761F0828DDF01A80FC0
:10205000B11D5D968C91928D9F5F9F73928F90E0E2
:1020600008958FEF9FEF089585ED91E1892B39F069
:1020700080E090E0892B19F098D1811125C080E093
:1020800090E0892B41F080E090E0892B21F00E94C4
:10209000000081111CC080E090E0892B41F080E0BD
:1020A00090E0892B21F00E940000811113C080E094
:1020B00090E0892BA1F080E090E0892B81F00E94D4
:1020C000000081110AC008950E940000D8CF0E942C
:1020D0000000E1CF0E940000EACF0C9400000895B8
:1020E000FC01848DDF01A80FB11DA35ABF4F2C91B5
:1020F000848D90E001968F739927848FA689B78984
:102100002C93A089B1898C9180648C93938D848D5C
:10211000981306C00288F389E02D80818F7D80832B
:102120000895CF93DF93EC01888D8823C1F0EA896D
:10213000FB89808185FD05C0A889B9898C9186FDC0
:102140000EC00FB607FCF5CF808185FFF2CFA889BE
:10215000B9898C9185FFEDCFCE01C2DFE8CFDF9149
:10216000CF910895CF92DF92FF920F931F93CF9359
:10217000DF931F92CDB7DEB76C0181E0D601589690
:102180008C9358975B969C915B975C968C915C972F
:10219000981307C05096ED91FC915197808185FD71
:1021A0002DC0F601038D10E00F5F1F4F0F73112735
:1021B000F02EF601848DF81210C00FB607FCF9CF8F
:1021C000D6015096ED91FC915197808185FFF1CF1A
:1021D000C601698385DF6981ECCF838DE80FF11D2E
:1021E000E35AFF4F6083D6015B960C935B97529640
:1021F000ED91FC915397808180620CC0D601569678
:10220000ED91FC91579760835096ED91FC91519719
:1022100080818064808381E090E00F90DF91CF9196
:102220001F910F91FF90DF90CF900895BF92CF92B2
:10223000DF92EF92FF92CF93DF93EC016A017B0173
:10224000B22EE889F98982E08083411581EE580732
:102250006105710599F060E079E08DE390E0A701F8
:10226000960146D3215031094109510956954795A8
:1022700037952795211580E1380790F0E889F9898D
:10228000108260E874E88EE190E0A701960130D3F7
:1022900021503109410951095695479537952795A0
:1022A000EC85FD853083EE85FF852083188EEC89D3
:1022B000FD89B082EA89FB89808180618083EA8917
:1022C000FB89808188608083EA89FB8980818068BE
:1022D0008083EA89FB8980818F7D8083DF91CF9124
:1022E000FF90EF90DF90CF90BF9008951F920F92D4
:1022F0000FB60F9211240BB60F922F938F939F93CB
:10230000EF93FF93E0910C05F0910D058081E09132
:102310001205F091130582FD12C090818091150580
:102320008F5F8F7320911605821751F0E09115058C
:10233000F0E0E450FB4F958F8093150501C080813C
:10234000FF91EF919F918F912F910F900BBE0F9066
:102350000FBE0F901F9018951F920F920FB60F92FD
:1023600011240BB60F922F933F934F935F936F936C
:102370007F938F939F93AF93BF93EF93FF938CEFD4
:1023800094E0AEDEFF91EF91BF91AF919F918F915D
:102390007F916F915F914F913F912F910F900BBE65
:1023A0000F900FBE0F901F9018958CEF94E02FDECA
:1023B00021E0892B09F420E0822F08951092FF0478
:1023C0001092FE0488EE93E0A0E0B0E08093000558
:1023D00090930105A0930205B093030580EB93E071
:1023E0009093FD048093FC0485EC90E090930905A4
:1023F0008093080584EC90E090930B0580930A0588
:1024000080EC90E090930D0580930C0581EC90E0BA
:1024100090930F0580930E0582EC90E09093110548
:102420008093100586EC90E090931305809312053D
:1024300010921505109216051092170510921805A6
:102440000895CF92DF92EF92FF920F931F93CF9355
:10245000DF937C016A01EB0100E010E00C151D0523
:1024600071F06991D701ED91FC910190F081E02D1F
:10247000C7011995892B19F00F5F1F4FEFCFC801C6
:10248000DF91CF911F910F91FF90EF90DF90CF9050
:1024900008956115710581F0DB010D900020E9F7C9
:1024A000AD0141505109461B570BDC01ED91FC91E8
:1024B0000280F381E02D199480E090E00895DC0122
:1024C000ED91FC91DB0114964D915C9115976D9106
:1024D0007C910280F381E02D1994DBCFDC01ED913A
:1024E000FC910190F081E02D19946CEB73E0D1CF59
:1024F0000F931F93CF93DF93EC01E1DF8C01CE01AB
:10250000F4DF800F911FDF91CF911F910F910895FC
:102510000F931F93CF93DF93EC01E0DF8C01CE018B
:10252000E4DF800F911FDF91CF911F910F910895EC
:102530008F929F92AF92BF92DF92EF92FF920F9392
:102540001F93CF93DF93CDB7DEB7A1970FB6F89463
:10255000DEBF0FBECDBF7C01F42FD52ECB0119A25B
:10256000223008F42AE08E010F5D1F4F822E912C3D
:10257000A12CB12C6F2F7D2DA5019401B9D1F22F83
:10258000D32ECA01015011096A3014F4E0E301C0EE
:10259000E7E3E60FD801EC93232B242B252B51F7EF
:1025A000B801C70176DFA1960FB6F894DEBF0FBE63
:1025B000CDBFDF91CF911F910F91FF90EF90DF90F2
:1025C000BF90AF909F908F900895CF92DF92EF923F
:1025D000FF920F931F93CF93DF93EC016A017B016E
:1025E0002115310579F4E881F9810190F081E02D20
:1025F000642FDF91CF911F910F91FF90EF90DF90AB
:10260000CF9019942A303105D9F477FF18C06DE2C4
:1026100065DF8C0144275527BA014C195D096E0905
:102620007F092AE0CE0184DF800F911FDF91CF91D7
:102630001F910F91FF90EF90DF90CF9008952AE0C7
:10264000B701A601CE01DF91CF911F910F91FF90AD
:10265000EF90DF90CF906CCF9A01AB01662757FDCA
:102660006095762FB2CF2115310541F4DC01ED9153
:10267000FC910190F081E02D642F199459CF9A01BB
:10268000462F50E060E070E0EECFFC018081918148
:10269000F3C1CF93DF93EC0188819981009709F012
:1026A000EBD1198218821D821C821B821A82DF9153
:1026B000CF9108950F931F93CF93DF93EC018B017C
:1026C0006F5F7F4F8881998166D2009731F099833F
:1026D00088831B830A8381E001C080E0DF91CF9172
:1026E0001F910F910895CF93DF93EC018881998119
:1026F000892B29F08A819B818617970758F4CE0190
:10270000D9DF882341F08C819D81892B19F4E881E0
:10271000F981108281E0DF91CF910895EF92FF92CD
:102720000F931F93CF93DF93EC017B018A01BA01D2
:10273000DADF811103C0CE01ACDF06C01D830C833C
:10274000B7018881998118D3CE01DF91CF911F9174
:102750000F91FF90EF900895FC0111821082138277
:102760001282158214826115710551F0FB010190EE
:102770000020E9F7AF0141505109461B570BCECF5E
:102780000895CF93DF93EC01FB018617970751F073
:10279000608171816115710521F044815581BEDF31
:1027A00001C077DFCE01DF91CF910895FC01118246
:1027B00010821382128215821482E3CFCF93DF93AB
:1027C000EC016115710559F0FB0101900020E9F75A
:1027D000AF0141505109461B570BA0DF01C059DF23
:1027E000CE01DF91CF910895EF92FF920F931F9347
:1027F000CF93DF93EC017B010C811D816115710585
:1028000011F480E014C04115510581F0040F151F2B
:10281000B80169DF8823A9F3288139818C819D81E2
:10282000B701820F931FA8D21D830C8381E0DF9133
:10283000CF911F910F91FF90EF900895CF93DF9369
:10284000EC016115710561F0FB0101900020E9F7D1
:10285000AF0141505109461B570BC6DF811102C021
:10286000CE0117DFCE01DF91CF91089578D2089580
:1028700022DAFDDF0E94D803C4E3D0E10E941A04EB
:102880002097E1F3F1DBFACF0895991B79E004C0BA
:10289000991F961708F0961B881F7A95C9F780959F
:1028A0000895AA1BBB1B51E107C0AA1FBB1FA61797
:1028B000B70710F0A61BB70B881F991F5A95A9F7E9
:1028C00080959095BC01CD01089597FB072E16F4D5
:1028D000009406D077FD08D0E4DF07FC05D03EF475
:1028E000909581959F4F0895709561957F4F0895BC
:1028F000A1E21A2EAA1BBB1BFD010DC0AA1FBB1F04
:10290000EE1FFF1FA217B307E407F50720F0A21B75
:10291000B30BE40BF50B661F771F881F991F1A94E2
:1029200069F760957095809590959B01AC01BD010C
:10293000CF010895EE0FFF1F0590F491E02D19943B
:102940000790F691E02D1994CF93DF938230910593
:1029500010F482E090E0E0919B05F0919C0520E06E
:1029600030E0A0E0B0E0309739F140815181481764
:102970005907B8F04817590771F48281938110976D
:1029800029F013969C938E9312972CC090939C05DC
:1029900080939B0527C02115310531F0421753075D
:1029A00018F0A901DB0101C0EF019A01BD01DF01AF
:1029B0000280F381E02DD7CF21153105F9F0281BD6
:1029C000390B2430310580F48A819B8161157105B2
:1029D00021F0FB019383828304C090939C05809334
:1029E0009B05FE01329644C0FE01E20FF31F819366
:1029F000919322503109398328833AC02091990557
:102A000030919A05232B41F4209102023091030268
:102A100030939A052093990520910002309101028C
:102A20002115310541F42DB73EB740910402509174
:102A30000502241B350BE0919905F0919A05E217E8
:102A4000F307A0F42E1B3F0B2817390778F0AC01D1
:102A50004E5F5F4F2417350748F04E0F5F1F5093AE
:102A60009A05409399058193919302C0E0E0F0E0CC
:102A7000CF01DF91CF910895CF93DF93009709F4B1
:102A800087C0FC01329713821282C0919B05D091BE
:102A90009C05209781F420813181280F391F809176
:102AA000990590919A058217930779F5F0939A0505
:102AB000E09399056DC0DE0120E030E0AE17BF075E
:102AC00050F412964D915C9113979D01411551055B
:102AD00009F1DA01F3CFB383A28340815181840FDE
:102AE000951F8A179B0771F48D919C911197840F04
:102AF000951F02969183808312968D919C911397D6
:102B0000938382832115310529F4F0939C05E0938A
:102B10009B053EC0D9011396FC93EE9312974D91FD
:102B20005D91A40FB51FEA17FB0779F480819181AD
:102B3000840F951F0296D90111969C938E938281E2
:102B4000938113969C938E931297E0E0F0E08A8134
:102B50009B81009719F0FE01EC01F9CFCE0102969E
:102B600028813981820F931F2091990530919A0510
:102B70002817390769F4309729F410929C051092B0
:102B80009B0502C013821282D0939A05C0939905C7
:102B9000DF91CF9108956F927F928F929F92AF9223
:102BA000BF92CF92DF92EF92FF920F931F93CF933A
:102BB000DF93EC01CB01209779F4DF91CF911F9146
:102BC0000F91FF90EF90DF90CF90BF90AF909F90CC
:102BD0008F907F906F90B8CEFE01E60FF71F9E0199
:102BE00022503109E217F30708F4A8C0D9010D916A
:102BF0001C91119706171707B0F00530110508F45E
:102C00009BC0A801445051094617570708F494C0C7
:102C100002501109061B170B019311936D937C93BE
:102C2000CF012ADF89C05B01A01AB10A4E01800ED4
:102C3000911EA0919B05B0919C05612C712C60E0C8
:102C400070E0109709F449C0A815B905C9F5ED90D1
:102C5000FC901197670142E0C40ED11CCA14DB043A
:102C600078F147018A189B08640142E0C40ED11C28
:102C70001296BC9012971396AC91B5E0CB16D10486
:102C800040F0B282A38391828082D9018D939C937C
:102C900009C00E5F1F4F0E0D1F1DF9011183008328
:102CA000EB2DFA2F6115710531F0DB011396FC93C2
:102CB000EE93129741C0F0939C05E0939B053CC0B6
:102CC0006D917C9111976616770608F43B01BD0162
:102CD00012960D90BC91A02DB4CF60919905709182
:102CE0009A0568157905E9F468167906D0F44091DB
:102CF0000002509101024115510541F44DB75EB7F4
:102D00006091040270910502461B570BE417F5070A
:102D1000A8F4F0939A05E0939905F90191838083D3
:102D20000BC012DE7C01009749F0A801BE011BD048
:102D3000CE01A2DEC70104C0CE0102C080E090E057
:102D4000DF91CF911F910F91FF90EF90DF90CF9087
:102D5000BF90AF909F908F907F906F90089581E08B
:102D600090E0F89410C0FB01DC0102C001900D92CC
:102D700041505040D8F70895FB01DC0101900D92BD
:102D80000020E1F7089512E0CEE2D2E000E005C0B5
:102D900022970109FE010BBFD3DDC033D10780E0CC
:082DA0000807B1F7F894FFCF1A
:102DA80000009D058000C8000000017878787878D8
:102DB8007878787878007878787878787878002CC7
:102DC80001000001060202050003050104060204D1
:102DD800D502DC02E402EE02F702FE0207030E034C
:102DE800120316031A031E03220326032A033203BF
:102DF8003B03410347034B03500355035C0366033E
:102E08006E0377038003840388038C0347039003CE
:102E1800940398039C03A003A403A8035379737431
:102E2800656D205374617274696E67003A002020E2
:102E380000426564726F6F6D204961696E27732067
:102E4800536964650000000000820456042B0433B3
:102E58000446045504000000000E07211278070CF0
:102E6800070D073614000000000E072112EB08E9D1
:102E780007FD07CF084D6F6E64617900547565735F
:102E8800646179005765646E65736461790054689C
:102E9800757273646179004672696461790053617F
:102EA8007475726461790053756E646179004D6F51
:102EB8006E00547565005765640054687500467265
:102EC80069005361740053756E004A616E756172D2
:102ED80079004665627275617279004D6172636846
:102EE80000417072696C004D6179004A756E650029
:102EF8004A756C7900417567757374005365707411
:102F0800656D626572004F63746F626572004E6F23
:102F180076656D62657200446563656D6265720011
:102F28004A616E00466562004D6172004170720030
:102F38004A756E004A756C004175670053657000EC
:102F48004F6374004E6F7600446563000000000014
:102F5800B210211207102010121091100D0A006EE5
:0E2F6800616E00696E66006F7666002E0000D6
:00000001FF
