:1000000017C1000046C1000044C1000042C1000009
:1000100040C100003EC100003CC100003AC10000E8
:1000200038C1000036C1000034C1000032C10000F8
:1000300030C100002EC100002CC100002AC1000008
:1000400028C1000026C1000024C1000022C1000018
:1000500020C100001EC100001CC100000C94E40B74
:1000600018C100000C94950F0C94CB0F12C1000026
:1000700010C100000EC100000CC100000AC1000048
:1000800008C1000006C1000004C1000002C1000058
:1000900000C10000FEC00000FCC0000058C4000009
:1000A000F8C00000F6C00000F4C00000F2C000007C
:1000B000F0C00000EEC00000ECC00000EAC000008C
:1000C000E8C00000E6C00000E4C00000E2C000009C
:1000D000E0C00000DEC00000DCC00000DAC00000AC
:1000E000D8C00000190D1C0D0B0D0F0D150D530D73
:1000F000200D240D2A0D2E0D320D380D3C0D400D16
:10010000530D460D4A0D4E0D00000A0B02090C0D51
:100110000E080703040100000000000000000000BA
:1001200000000000000000000000000000000000CF
:10013000000000001211100000000000000000008C
:1001400000000000000000000000000000000102AC
:1001500010202008081020401020408002010201D9
:100160000804020101020408102040808040201091
:1001700008040201800402018040201008040201EA
:100180000804020101020408102040800102040852
:10019000102040800505050507050808080802022B
:1001A00002020A0A08080404040401010101010111
:1001B00001010303030303030303040707070C0CF4
:1001C0000C0C0C0C0C0C02020202060606060606BB
:1001D00006060B0B0B0B0B0B0B0B00002000230078
:1001E000260029002C002F0032000001000003012E
:1001F0000601090100002200250028002B002E0026
:100200003100340002010000050108010B0100006B
:100210002100240027002A002D00300033000101B6
:100220000000040107010A01C9020604FD0FF902DA
:1002300011241FBECFEFD1E2DEBFCDBF00E00CBF67
:1002400013E0A0E0B2E0E0EAF7E200E00BBF02C09A
:1002500007900D92A43CB107D9F725E0A4ECB3E0D8
:1002600001C01D92AD37B207E1F712E0CEE2D2E055
:1002700000E006C022970109FE010BBF0E949C11FD
:10028000C832D10780E00807A9F70E9434110C9406
:10029000BF13B6CE8BEE93E00E94A01081EF93E0E7
:1002A0000E94A01087EF93E00C94A0108EEC93E0D6
:1002B000F7D440E060E08EEC93E0FCD466E772E0B7
:1002C0008EEC93E00C948C1062E084EC93E00E943E
:1002D000910BBC0187EF93E00E941C112EE241E0DC
:1002E00062E084EC93E00E94770ABC018BEE93E01D
:1002F0000E941C1162E084EC93E00E94110ABC0190
:1003000081EF93E00E941C1161EF73E08CED94E0AB
:100310000C9490100F931F93CF93DF9388E20E9469
:10032000C20DEC0190930C0480930B048130910575
:10033000B1F58091050490910604892B81F50E9406
:100340002E0C0091E7031091E8032091E90330910E
:10035000EA03601B710B820B930B00910602109154
:100360000702209108023091090206171707280793
:100370003907A8F48091110490911204019709F0B3
:10038000BBC010921204109211040E942E0C6093B4
:10039000E7037093E8038093E9039093EA03609185
:1003A000110488E00E948D0D80910B0490910C0443
:1003B00090930604809305048AE20E94C20DEC012A
:1003C00090930A048093090481309105B1F58091DE
:1003D000030490910404892B81F50E942E0C009156
:1003E000E7031091E8032091E9033091EA03601BD1
:1003F000710B820B930B0091060210910702209162
:100400000802309109020617170728073907A8F4D0
:1004100080910F0490911004019709F072C010921E
:10042000100410920F040E942E0C6093E703709347
:10043000E8038093E9039093EA0360910F0489E055
:100440000E948D0D8091090490910A0490930404F8
:10045000809303048CE20E94C20DEC019093080487
:100460008093070481309105A9F580910104909152
:100470000204892B79F50E942E0C0091E70310915C
:10048000E8032091E9033091EA03601B710B820BB2
:10049000930B0091060210910702209108023091FF
:1004A00009020617170728073907A0F480910D04E1
:1004B00090910E04019751F510920E0410920D04C4
:1004C0000E942E0C6093E7037093E8038093E90386
:1004D0009093EA0360910D048AE00E948D0D809153
:1004E0000704909108049093020480930104DF9123
:1004F000CF911F910F910895D0931204C0931104CE
:1005000044CFD0931004C0930F048DCFD0930E042A
:10051000C0930D04D5CF82309105B9F08330910599
:1005200031F181309105A1F520911104309112042F
:100530002130310529F4109212041092110408950B
:100540009093120480931104089580910F04909168
:100550001004019729F41092100410920F040895CA
:1005600081E090E09093100480930F0408958091AF
:100570000D0490910E04019729F410920E0410922C
:100580000D04089581E090E090930E0480930D0493
:1005900008958F92AF92CF92EF920F9365EB73E035
:1005A00087EF93E00E94071165EB73E081EF93E022
:1005B0000E94071165EB73E08BEE93E00E94071138
:1005C00097E0892E26E0A22E35E0C32E44E0E42EEB
:1005D00000E021E042E067E28EEC93E0A3D445E145
:1005E00064E184EC93E00F91EF90CF90AF908F9007
:1005F0005BC550CE62E088E20E94540D62E08AE260
:100600000E94540D62E08CE20E94540D61E088E08B
:100610000E94540D61E089E00E94540D61E08AE07F
:100620000E94540D20E044E064E18EEC93E0F2D4AB
:1006300040E050E063E08EEC93E0EAD360EA8EECB9
:1006400093E0FAD38EEC93E030D30E942E0C6093AB
:10065000FD037093FE038093FF039093000426E054
:1006600040E855E260E070E08CED94E00E94350FC8
:1006700084EC93E0E7D41ACE8CED94E00E94260E31
:10068000892B31F08CED94E00E943F0EC09743DF40
:100690001BDE40CE8091430490E020914404821BF5
:1006A000910908952091440480914304281750F43F
:1006B000E22FF0E0EB5BFB4F808190E02F5F209317
:1006C000440408958FEF9FEF0895E09144048091D2
:1006D0004304E81730F4F0E0EB5BFB4F808190E0DF
:1006E00008958FEF9FEF08950895CF92DF92EF92D4
:1006F000FF920F931F93CF93DF937C01CB018A016D
:1007000020911F04222389F0EB016B01C40ED51E3A
:10071000CC15DD0561F06991D701ED91FC91019057
:10072000F081E02DC7011995F3CF642FE7D0C80100
:10073000DF91CF911F910F91FF90EF90DF90CF90BD
:100740000895CF93DF931F92CDB7DEB769832091D1
:100750001F042223D1F020912004203240F021E018
:1007600030E0FC013383228380E090E014C080916C
:100770002104E82FF0E0EE5DFB4F998190838F5FBD
:10078000809321048093200404C061E0CE0101968F
:10079000B5D081E090E00F90DF91CF910895FC01FA
:1007A0001382128248EE53E060E070E04483558388
:1007B0006683778380EA92E0918380830895109224
:1007C000440410924304109221041092200421C08A
:1007D00081E080931F0460934204109221041092E0
:1007E000200408950F93062F21E04091200462E237
:1007F00074E0809142042BD01092210410922004C6
:1008000010921F040F91089561E0ECCF83E194E012
:10081000C6CF1092D20481E08093D0041092CF040E
:1008200061E084E10E948D0D61E085E10E948D0D03
:10083000E9EBF0E080818E7F808380818D7F8083F3
:1008400088E48093B80085E48093BC0008950F93FA
:10085000413208F04AC09091D2049111FCCF92E04D
:100860009093D2040093D0049FEF9093650410926C
:10087000AA044093A904FB016BEA74E0DB019A2F00
:10088000961B941718F491919D93F9CF1092D1046F
:100890009091D104880F892B8093D1048091CF044B
:1008A000813061F41092CF048091D1048093BB0019
:1008B0008091BC0083FDF8CF85EC01C085EE80936C
:1008C000BC00222321F08091D2048230E1F3809198
:1008D00065048F3F61F080916504803251F0809112
:1008E0006504803341F483E007C081E005C080E007
:1008F00003C082E001C084E00F910895613298F452
:100900002091D204243089F460938704FC0189E8A3
:1009100094E0DC012A2F281B261718F421912D932F
:10092000F9CF80E0089581E0089582E0089585ED93
:100930008093BC008091BC0084FDFCCF1092D20457
:10094000089585EC8093BC001092D20408951F9204
:100950000F920FB60F9211240BB60F922F933F9365
:100960004F935F936F937F938F939F93AF93BF93B7
:10097000EF93FF938091B900887F803609F49DC082
:1009800070F5883209F45CC090F4803109F455C0E8
:1009900038F4882309F4F3C0883009F44EC0F2C05B
:1009A000883109F44DC0803209F45EC0EBC0803458
:1009B00009F469C050F4803309F456C0883309F053
:1009C000E1C080936504BDDFDDC0803509F44FC010
:1009D000883509F45DC0883409F0D4C0D2C08839A4
:1009E00009F4C3C0A8F4883709F467C038F488361E
:1009F00009F463C0803709F460C0C4C0883809F4C2
:100A0000B4C0803909F45FC0803809F0BBC05BC056
:100A1000803B09F482C038F4803A09F466C0883A11
:100A200009F47BC0AFC0803C09F4A3C0883C09F442
:100A3000A0C0883B09F486C0A5C08091D10410C035
:100A40009091AA048091A904981770F5E091AA04E6
:100A500081E08E0F8093AA04F0E0E555FB4F808182
:100A60008093BB0085EC82C0809365048AC0E091CE
:100A7000AA0481E08E0F8093AA048091BB00F0E06D
:100A8000E555FB4F80839091AA048091A9046AC028
:100A9000E091AA0481E08E0F8093AA048091BB00AC
:100AA000F0E0E555FB4F80838091D004811169C04F
:100AB00081E08093CF0484EA5DC083E08093D20418
:100AC00010926604CFCF80916604803208F04DC04A
:100AD000E091660481E08E0F809366048091BB00F4
:100AE000F0E0E959FB4F8083BDCF2BDF8091660496
:100AF000803230F4E0916604F0E0E959FB4F108257
:100B00006091660470E0E091CB04F091CC0487E63C
:100B100094E019951092660435C084E08093D20465
:100B20001092880410928704E091CD04F091CE04D5
:100B3000199580918704811105C081E08093870415
:100B400010928904E091880481E08E0F80938804DC
:100B5000F0E0E757FB4F80818093BB0090918804C1
:100B600080918704981708F47DCF85E88093BC00B6
:100B700009C085EC8093BC001092D20403C010928F
:100B80006504D5DEFF91EF91BF91AF919F918F9159
:100B90007F916F915F914F913F912F910F900BBE7D
:100BA0000F900FBE0F901F901895FC0112828FEFCF
:100BB0008183108213820895FC018381882331F0A0
:100BC000611103C08FEF818308951182089583E13D
:100BD00094E0FEDD83E194E017DE91E0811190E086
:100BE000892F0895CF93DF93EC016A8383E194E02A
:100BF000E6DD6A81CE01EBDF8B83882321F083E180
:100C000094E050DD88838B8190E0DF91CF9108954F
:100C1000CF93DF93EC018B81882391F089818095BC
:100C2000862388836A8183E194E0D2DD688183E151
:100C300094E087DD83E194E0E7DD282F30E002C017
:100C400020E030E081E090E0232B11F080E090E0A4
:100C5000DF91CF91089508950895DC01ED91FC9105
:100C60000284F385E02D41E0199581E090E008953C
:100C7000FC011382128220EB32E03183208308953D
:100C8000DC01ED91FC910084F185E02D6FEF19946A
:100C9000DC01ED91FC910284F385E02D40E0199494
:100CA00061E0F6DF80ED97E03FC662E0F1DF80EDC6
:100CB00097E03AC6CF93DF93CDB7DEB728970FB64C
:100CC000F894DEBF0FBECDBF1D8220E42E8334E139
:100CD0003F8334E5388719822A8320E12B8320E57E
:100CE0002C83FC012781421710F04FEF420FFC01CB
:100CF000308550E0FE01E40FF51F303121F424303F
:100D000011F4218101C02581260F2068622F2896C9
:100D10000FB6F894DEBF0FBECDBFDF91CF91B8CF35
:100D2000FC016581262F246025836C60B1CFCF93B1
:100D3000DF93EC01423018F08C8188608C834F8304
:100D40006887222329F0413019F48C8184608C83D8
:100D500064E670E080E090E0B0D56C8164FD2EC068
:100D6000E881F9810284F385E02D42E063E0CE0161
:100D7000199584E991E1D8D5E881F9810284F38558
:100D8000E02D42E063E0CE01199586E990E0CCD5F4
:100D9000E881F9810284F385E02D42E063E0CE0131
:100DA000199586E990E0C0D5E881F9810284F38540
:100DB000E02D42E062E0CE01199511C06062CE01E3
:100DC00067DF84E991E1B0D56C816062CE0160DFBC
:100DD00086E990E0A9D56C816062CE0159DF86E991
:100DE00090E0A2D56C816062CE0152DF8CE390E08E
:100DF0009BD584E08D83CE0193DFCE0151DF82E06D
:100E00008E8366E0CE0144DFCE01DF91CF9138CFF3
:100E100021E001C0220F6A95EAF7DC011C962C93B1
:100E20001C971A965C934E931997ED91FC91008450
:100E3000F185E02D60E01994FC012485222391F0D6
:100E400081859285009719F4611105C006C001974C
:100E500021F4611102C0258701C015866585CF0187
:100E60000E96D6CE08950F931F93CF93DF93EC0188
:100E70008C01025F1F4F6B85C801B4DE019751F4EE
:100E800061E0C80199DE1C8260E0C801C1DE81E03A
:100E900090E002C080E090E0DF91CF911F910F9130
:100EA00008958F92AF92CF92EF920F93CF93DF93EB
:100EB000CDB7DEB7FC0163871486158612861186CE
:100EC00081E0982F01C0990F4A95EAF7928B982FED
:100ED00001C0990F2A95EAF7938B982F01C0990FBB
:100EE0000A95EAF7948B982F01C0990FEA94EAF7D4
:100EF000958B982F01C0990FCA94EAF7968B982F7B
:100F000001C0990FAA94EAF7978B01C0880F8A94C1
:100F1000EAF7808FDF91CF910F91EF90CF90AF9054
:100F20008F9008956F927F928F92AF92CF92EF92AF
:100F30000F93CF93DF9300D0CDB7DEB73C012B8367
:100F40004A83698395DE80EC92E0F301918380838C
:100F5000C3010E962ADE2B814A816981C301A1DF7C
:100F60000F900F900F90DF91CF910F91EF90CF9056
:100F7000AF908F907F906F900895FF920F931F9383
:100F8000CF93DF93EC01F62E8C01025F1F4F6A892D
:100F90006F29C8013DDE6A8960956F21C801DF9124
:100FA000CF911F910F91FF9033CE20E030E050E0C1
:100FB00060FF05C0FC01E20FF31F7589572B669592
:100FC0002F5F3F4F2430310599F7413011F4FC0178
:100FD0004489FC016585652B642BCFCF0F931F934C
:100FE000CF93DF93EC01142F062F0F70423011F4D2
:100FF00040E009C070E084E0759567958A95E1F757
:10100000CE01D3DF412F602FCE01DF91CF911F9111
:101010000F91CBCF0F931F93CF93DF9300D0CDB71A
:10102000DEB78C012B834A8369831DDF2B814A81C4
:101030006981C8010F900F900F90DF91CF911F91A0
:101040000F9175CEFC0181818431E1F4808185317D
:10105000C9F481E0818761E084E15FD561E085E1E9
:101060005CD58091B9008E7F8093B9008091B900E2
:101070008D7F8093B9008CE08093B80085E08093E9
:10108000BC000895118661E080810EC5FC018EEDE3
:1010900097E09683858381E0848383831082118225
:1010A000128283E087830895FC0161834083089561
:1010B0000F931F93CF93DF931F92CDB7DEB78C01B1
:1010C000262F61E0FC0181812983EED461E0F801E3
:1010D000818123D561E0F80180811FD560E0F801AE
:1010E00081811BD560E0F801808117D5298141E01D
:1010F000F801608181810F90DF91CF911F910F9155
:1011000069C5CF93DF93EC0161E08981CDD460E0C4
:10111000898103D561E0888100D561E08981FDD4B2
:1011200060E08981DF91CF91BFC4CF93DF93EC0161
:1011300061E08981B9D460E08881EFD461E0898180
:10114000ECD461E08881E9D460E08881E6D460E095
:101150008981DF91CF91A8C4CF93DF93EC0161E047
:101160008981A2D460E08881D8D460E08981D5D417
:1011700061E08881D2D460E08881CFD460E0898149
:10118000DF91CF9191C4CF93DF93EC0160E089812F
:101190008BD461E08881C1D48981F4D40197E1F3D3
:1011A00060E08881DF91CF91B8C4FF920F931F93C5
:1011B000CF93DF93EC0160E0898176D407E010E003
:1011C000F12C61E08881A9D48981DCD49927002E93
:1011D00001C0880F0A94EAF7F82A81E090E0A4D3CE
:1011E00060E088819AD40150110958F78F2DDF9162
:1011F000CF911F910F91FF9008950F931F93CF935D
:10120000DF931F92CDB7DEB78C01262F61E0FC0182
:101210008181298349D4298141E0F801608181815C
:101220000F90DF91CF911F910F91D4C40F931F9313
:10123000CF93DF93EC018985882309F44DC084EEB8
:101240008093BC008091BC0087FFFCCF80ED809331
:10125000BB0084EC8093BC008091BC0087FFFCCF76
:101260001092BB0084EC8093BC008091BC0087FF8F
:10127000FCCF84EE8093BC008091BC0087FFFCCF44
:1012800081ED8093BB0084EC8093BC008091BC0016
:1012900087FFFCCF80E090E034EC3093BC002091DD
:1012A000BC0027FFFCCF2091BB00FE01E80FF91F17
:1012B000228301968730910581F784E88093BC00F2
:1012C0008091BC0087FFFCCF84E98093BC00DF9154
:1012D000CF911F910F91089560EDCE01E9DECE010F
:1012E00052DF60E0CE0189DFCE014DDF61EDCE013E
:1012F000DFDECE0148DF00E010E0CE0156DFFE0168
:10130000E00FF11F8283CE010630110511F024DFBA
:1013100001C00BDF0F5F1F4F0730110571F7CE01C2
:10132000DF91CF911F910F91ECCE962F96959695C8
:1013300096959E70292F220F220F290F862F8F70CE
:10134000820F0895962F9F7067FF09C065FB66277F
:1013500060F9892F2CE0629F800D1124089560733D
:10136000669566956695862F880F880F860F890F7C
:1013700008950F931F93CF93DF93CDB7DEB7609798
:101380000FB6F894DEBF0FBECDBF8C01CE0109961B
:101390007DDEC8014BDFF8016281C801C6DF8B87A3
:1013A000F8016381C801C1DF8A87F8016481C8013F
:1013B000C9DF8987F8018581888B6681C801B5DF1F
:1013C0008C87F8016781C801B0DF8D87F8018085BF
:1013D000982F92959F708F70FAE09F9F800D112437
:1013E00090E08053984F9F878E8788E0FE01399662
:1013F000DE01119601900D928A95E1F729813A81DB
:101400004B815C816D817E818F81988560960FB65E
:10141000F894DEBF0FBECDBFDF91CF911F910F912A
:101420000895FF920F931F93CF93DF93CDB7DEB74D
:1014300028970FB6F894DEBF0FBECDBF8C01F62EF5
:10144000CE01019623DEC80194DF3A834B832A3014
:1014500010F480E304C0822F6AE013D7805D80938C
:1014600015023AE0822F632F0CD7905D90931602FD
:101470008AE3809317022A812A3010F480E304C0A3
:10148000822F632FFED6805D809318023AE0822F70
:10149000632FF7D6905D909319028AE380931A0226
:1014A00081E0F81203C010921A0213C02B812A3077
:1014B00010F480E304C0822F632FE3D6805D809315
:1014C0001B02822F6AE0DDD6905D90931C02109281
:1014D0001D0285E192E028960FB6F894DEBF0FBE9C
:1014E000CDBFDF91CF911F910F91FF900895DF92B3
:1014F000EF92FF920F931F93CF93DF93CDB7DEB799
:1015000028970FB6F894DEBF0FBECDBF8C01E62E34
:10151000D42EF22ECE010196B9DDC8012ADF262F86
:101520005C836D837E838F8382E0D816E1F083E055
:10153000D81609F464C081E0D812E3C05A3010F420
:1015400080E304C0852F6AE09CD6805D80930A0208
:101550003AE0852F632F95D6905D90930B02F09221
:101560000C022D8160C0EE81FF8181E0E81609F454
:10157000ACC0CF0168EE73E0A4D6605D60930A0250
:1015800004E610E0B8019DD6605D60930B02CF01C8
:10159000B80197D60AE010E0B80193D6605D609379
:1015A0000C02CF01B8018DD6805D80930D02F092C0
:1015B0000E02E2E0F0E02D81E65FFD4F2A3010F4EC
:1015C00080E304C0822F6AE05CD6805D83833AE0CA
:1015D000822F632F56D6905D9483F5822C812A301A
:1015E00010F480E304C0822F632F4BD6805D868386
:1015F000822F6AE046D6905D9783108682C06A305B
:1016000010F480E304C0862F6AE03BD6805D8093AF
:101610000A023AE0822F632F34D6905D90930B023A
:10162000F0920C022C812A3010F480E304C0822F47
:10163000632F27D6805D80930D02822F6AE021D62A
:10164000905D90930E02F0920F022E813F8181E017
:10165000E8121AC0205D37402A30310524F480E3B7
:101660008093100207C0C9016AE070E02AD6605D6D
:1016700060931002C9016AE070E023D6805D809318
:101680001102109212023DC0C90168EE73E019D632
:10169000605D60931002E4E6F0E0BF0112D6605D89
:1016A00060931102C901BF010CD6EAE0F0E0BF016E
:1016B00008D6605D60931202C901BF0102D6805D49
:1016C00080931302109214021CC0E05DF740EA30D0
:1016D000F10524F480E380930A0207C0CF016AE099
:1016E00070E0EFD5605D60930A02CF016AE070E0C0
:1016F000E8D5805D80930B02F0920C02E0E0F0E010
:101700005ACF8AE092E028960FB6F894DEBF0FBE5B
:10171000CDBFDF91CF911F910F91FF90EF90DF90A0
:101720000895FF920F931F93CF93DF93CDB7DEB74A
:10173000A4970FB6F894DEBF0FBECDBF8C01F62E76
:101740008EE0EAE2F2E0DE011F9601900D928A95AA
:10175000E1F78EE0E8E3F2E0DE01119601900D92F0
:101760008A95E1F7CE014D9691DCC80102DE2D8FFE
:101770003E8F4F8F58A369A37AA38BA39CA3E92F15
:10178000F0E081E03197EE0FFF1FF81209C081E011
:1017900090E08C0F9D1FE80FF91F8081918108C098
:1017A00081E090E08C0F9D1FE80FF91F86859785DB
:1017B000A4960FB6F894DEBF0FBECDBFDF91CF91D8
:1017C0001F910F91FF9008951F920F920FB60F92E5
:1017D00011242F933F938F939F93AF93BF93809147
:1017E000D4049091D504A091D604B091D70430913F
:1017F000D30423E0230F2D3720F40196A11DB11D42
:1018000005C026E8230F0296A11DB11D2093D30425
:101810008093D4049093D504A093D604B093D704B6
:101820008091D8049091D904A091DA04B091DB049E
:101830000196A11DB11D8093D8049093D904A09363
:10184000DA04B093DB04BF91AF919F918F913F91E8
:101850002F910F900FBE0F901F9018952FB7F894EF
:101860006091D4047091D5048091D6049091D704EE
:101870002FBF08953FB7F8948091D8049091D90470
:10188000A091DA04B091DB0426B5A89B05C02F3FD8
:1018900019F00196A11DB11D3FBF6627782F892F32
:1018A0009A2F620F711D811D911D42E0660F771FF7
:1018B000881F991F4A95D1F708958F929F92AF92F2
:1018C000BF92CF92DF92EF92FF926B017C01D2DF49
:1018D0004B015C01C114D104E104F104E1F0D0D466
:1018E000C9DF681979098A099B09683E7340810537
:1018F000910580F321E0C21AD108E108F10888EED1
:10190000880E83E0981EA11CB11CC114D104E1040F
:10191000F10431F7DFCFFF90EF90DF90CF90BF90D1
:10192000AF909F908F9008958230910538F0880F86
:10193000991F880F991F05970197F1F708957894DB
:1019400084B5826084BD84B5816084BD85B58260C4
:1019500085BD85B5816085BDEEE6F0E08081816062
:101960008083E1E8F0E01082808182608083808162
:1019700081608083E0E8F0E0808181608083E1EB3A
:10198000F0E0808184608083E0EBF0E08081816022
:101990008083E1E9F0E080818260808380818160E2
:1019A0008083E0E9F0E0808181608083E1EAF0E01B
:1019B000808182608083808181608083E0EAF0E0C2
:1019C000808181608083E1E2F1E0808182608083B8
:1019D000808181608083E0E2F1E0808181608083AA
:1019E000EAE7F0E080818460808380818260808388
:1019F0008081816080838081806880831092C100B3
:101A0000089590E0FC013197E231F10508F04BC0F8
:101A1000EE58FF4F8BC4809180008F7703C0809178
:101A200080008F7D80938000089580918000877F63
:101A3000F9CF84B58F7702C084B58F7D84BD0895BA
:101A40008091B0008F7703C08091B0008F7D80932C
:101A5000B0000895809190008F7707C0809190002A
:101A60008F7D03C080919000877F809390000895C0
:101A70008091A0008F7707C08091A0008F7D03C068
:101A80008091A000877F8093A0000895809120011D
:101A90008F7707C0809120018F7D03C08091200146
:101AA000877F809320010895CF93DF9390E0FC011E
:101AB000E25BFE4F2491FC01EC56FE4F849188239B
:101AC00049F190E0880F991FFC01E25FFD4FA5915D
:101AD000B4918C509E4FFC01C591D4919FB7611178
:101AE00008C0F8948C91209582238C93888182235E
:101AF0000AC0623051F4F8948C91322F30958323D0
:101B00008C938881822B888304C0F8948C91822BDB
:101B10008C939FBFDF91CF9108950F931F93CF9325
:101B2000DF931F92CDB7DEB7282F30E0F901E85FD1
:101B3000FE4F8491F901E25BFE4F1491F901EC56DE
:101B4000FE4F04910023C1F0882319F0698359DF07
:101B50006981E02FF0E0EE0FFF1FEC50FE4FA591E2
:101B6000B4919FB7F8948C91611103C010958123B3
:101B700001C0812B8C939FBF0F90DF91CF911F915C
:101B80000F910895CF93DF93282F30E0F901E85F9C
:101B9000FE4F8491F901E25BFE4FD491F901EC56BE
:101BA000FE4FC491CC2389F081112BDFEC2FF0E0A4
:101BB000EE0FFF1FE652FE4FA591B4912C912D23FD
:101BC00081E090E021F480E002C080E090E0DF91CD
:101BD000CF910895BF92CF92DF92EF92FF920F9331
:101BE0001F93CF93DF93C82ED62EB42EC7E0D0E03C
:101BF000022F10E087E0E82EF12CB1100AC0F701A7
:101C0000EC1BFD0BB80102C075956795EA95E2F7EC
:101C100007C0B8010C2E02C0759567950A94E2F7CB
:101C2000617077278C2D79DF61E08D2D76DF60E0A4
:101C30008D2D73DF219708F7DF91CF911F910F91C1
:101C4000FF90EF90DF90CF90BF900895FC01818DC1
:101C5000228D90E0805C9F4F821B91098F739927A2
:101C60000895FC01918D828D981731F0828DE80FD7
:101C7000F11D858D90E008958FEF9FEF0895FC0191
:101C8000918D828D981761F0828DDF01A80FB11DB3
:101C90005D968C91928D9F5F9F73928F90E00895D7
:101CA0008FEF9FEF089584EF9FE0892B39F080E05C
:101CB00090E0892B19F098D1811125C080E090E047
:101CC000892B41F080E090E0892B21F00E940000F8
:101CD00081111CC080E090E0892B41F080E090E011
:101CE000892B21F00E940000811113C080E090E058
:101CF000892BA1F080E090E0892B81F00E94000008
:101D000081110AC008950E940000D8CF0E940000EF
:101D1000E1CF0E940000EACF0C9400000895FC017E
:101D2000848DDF01A80FB11DA35ABF4F2C91848D64
:101D300090E001968F739927848FA689B7892C9399
:101D4000A089B1898C9180648C93938D848D981334
:101D500006C00288F389E02D80818F7D80830895FD
:101D6000CF93DF93EC01888D8823C1F0EA89FB894A
:101D7000808185FD05C0A889B9898C9186FD0EC03A
:101D80000FB607FCF5CF808185FFF2CFA889B9890E
:101D90008C9185FFEDCFCE01C2DFE8CFDF91CF91EF
:101DA0000895CF92DF92FF920F931F93CF93DF930B
:101DB0001F92CDB7DEB76C0181E0D60158968C93A7
:101DC00058975B969C915B975C968C915C97981367
:101DD00007C05096ED91FC915197808185FD2DC0F3
:101DE000F601038D10E00F5F1F4F0F731127F02EC8
:101DF000F601848DF81210C00FB607FCF9CFD6019A
:101E00005096ED91FC915197808185FFF1CFC601ED
:101E1000698385DF6981ECCF838DE80FF11DE35A7B
:101E2000FF4F6083D6015B960C935B975296ED91C2
:101E3000FC915397808180620CC0D6015696ED913B
:101E4000FC91579760835096ED91FC91519780815A
:101E50008064808381E090E00F90DF91CF911F91AB
:101E60000F91FF90DF90CF900895BF92CF92DF92B5
:101E7000EF92FF92CF93DF93EC016A017B01B22EC8
:101E8000E889F98982E08083411581EE5807610570
:101E9000710599F060E079E08DE390E0A70196018B
:101EA00023D221503109410951095695479537955B
:101EB0002795211580E1380790F0E889F98910828B
:101EC00060E874E88EE190E0A70196010DD2215000
:101ED0003109410951095695479537952795EC8564
:101EE000FD853083EE85FF852083188EEC89FD8982
:101EF000B082EA89FB89808180618083EA89FB89DD
:101F0000808188608083EA89FB8980818068808302
:101F1000EA89FB8980818F7D8083DF91CF91FF905B
:101F2000EF90DF90CF90BF9008951F920F920FB661
:101F30000F9211240BB60F922F938F939F93EF93D1
:101F4000FF93E091EC04F091ED048081E091F204C4
:101F5000F091F30482FD12C090818091F5048F5FAF
:101F60008F732091F604821751F0E091F504F0E0B0
:101F7000E452FB4F958F8093F50401C08081FF915F
:101F8000EF919F918F912F910F900BBE0F900FBEED
:101F90000F901F9018951F920F920FB60F92112459
:101FA0000BB60F922F933F934F935F936F937F9353
:101FB0008F939F93AF93BF93EF93FF938CED94E038
:101FC000AEDEFF91EF91BF91AF919F918F917F9185
:101FD0006F915F914F913F912F910F900BBE0F909A
:101FE0000FBE0F901F9018958CED94E02FDE21E02E
:101FF000892B09F420E0822F08951092DF041092BB
:10200000DE0488EE93E0A0E0B0E08093E0049093DB
:10201000E104A093E204B093E30487EA93E0909391
:10202000DD048093DC0485EC90E09093E9048093D8
:10203000E80484EC90E09093EB048093EA0480EC55
:1020400090E09093ED048093EC0481EC90E0909309
:10205000EF048093EE0482EC90E09093F10480937F
:10206000F00486EC90E09093F3048093F2041092D5
:10207000F5041092F6041092F7041092F8040895F3
:10208000CF92DF92EF92FF920F931F93CF93DF9344
:102090007C016A01EB0100E010E00C151D0571F0F8
:1020A0006991D701ED91FC910190F081E02DC7017C
:1020B0001995892B19F00F5F1F4FEFCFC801DF91E2
:1020C000CF911F910F91FF90EF90DF90CF900895E7
:1020D0006115710581F0DB010D900020E9F7AD017C
:1020E00041505109461B570BDC01ED91FC910280D8
:1020F000F381E02D199480E090E00895DC01ED91EA
:10210000FC91DB0114964D915C9115976D917C913A
:102110000280F381E02D1994DBCF63EB73E0D8CF1D
:102120000F931F93CF93DF93EC01E8DF8C01CE0177
:10213000F4DF800F911FDF91CF911F910F910895D0
:10214000FC018081918194C1CF93DF93EC01888160
:102150009981009709F08CD1198218821D821C8206
:102160001B821A82DF91CF9108950F931F93CF9313
:10217000DF93EC018B016F5F7F4F8881998107D2DC
:10218000009731F0998388831B830A8381E001C023
:1021900080E0DF91CF911F910F910895CF93DF934E
:1021A000EC0188819981892B29F08A819B8186178E
:1021B000970758F4CE01D9DF882341F08C819D81A7
:1021C000892B19F4E881F981108281E0DF91CF91A8
:1021D0000895EF92FF920F931F93CF93DF93EC013B
:1021E0007B018A01BA01DADF811103C0CE01ACDFC5
:1021F00006C01D830C83B70188819981B9D2CE01B5
:10220000DF91CF911F910F91FF90EF900895FC0106
:102210001182108213821282158214826115710557
:1022200051F0FB0101900020E9F7AF014150510945
:10223000461B570BCECF0895CF93DF93EC0161156A
:10224000710559F0FB0101900020E9F7AF01415001
:102250005109461B570BBDDF01C076DFCE01DF9170
:10226000CF91089578D208956ADBFDDF0E94FA02CB
:10227000C3E5DEE00E943C032097E1F314DDFACFD2
:102280000895991B79E004C0991F961708F0961BD2
:10229000881F7A95C9F780950895AA1BBB1B51E149
:1022A00007C0AA1FBB1FA617B70710F0A61BB70BC6
:1022B000881F991F5A95A9F780959095BC01CD016B
:1022C000089597FB072E16F4009406D077FD08D0EA
:1022D000E4DF07FC05D03EF4909581959F4F08956B
:1022E000709561957F4F0895A1E21A2EAA1BBB1B22
:1022F000FD010DC0AA1FBB1FEE1FFF1FA217B307D2
:10230000E407F50720F0A21BB30BE40BF50B661FE7
:10231000771F881F991F1A9469F7609570958095AB
:1023200090959B01AC01BD01CF010895EE0FFF1FF9
:102330000590F491E02D19940790F691E02D1994F1
:10234000CF93DF938230910510F482E090E0E0912A
:102350007B05F0917C0520E030E0A0E0B0E0309714
:1023600039F14081518148175907B8F0481759078A
:1023700071F482819381109729F013969C938E9328
:1023800012972CC090937C0580937B0527C0211564
:10239000310531F04217530718F0A901DB0101C0E4
:1023A000EF019A01BD01DF010280F381E02DD7CF5B
:1023B00021153105F9F0281B390B2430310580F443
:1023C0008A819B816115710521F0FB0193838283D2
:1023D00004C090937C0580937B05FE01329644C037
:1023E000FE01E20FF31F819391932250310939834B
:1023F00028833AC02091790530917A05232B41F446
:10240000209102023091030230937A0520937905DE
:1024100020910002309101022115310541F42DB7C0
:102420003EB74091040250910502241B350BE09108
:102430007905F0917A05E217F307A0F42E1B3F0B04
:102440002817390778F0AC014E5F5F4F2417350726
:1024500048F04E0F5F1F50937A05409379058193A2
:10246000919302C0E0E0F0E0CF01DF91CF910895B9
:10247000CF93DF93009709F487C0FC013297138252
:102480001282C0917B05D0917C05209781F4208138
:102490003181280F391F8091790590917A05821733
:1024A000930779F5F0937A05E09379056DC0DE0125
:1024B00020E030E0AE17BF0750F412964D915C91CA
:1024C00013979D014115510509F1DA01F3CFB3834B
:1024D000A28340815181840F951F8A179B0771F455
:1024E0008D919C911197840F951F02969183808303
:1024F00012968D919C9113979383828321153105B8
:1025000029F4F0937C05E0937B053EC0D901139636
:10251000FC93EE9312974D915D91A40FB51FEA17AE
:10252000FB0779F480819181840F951F0296D90170
:1025300011969C938E938281938113969C938E9394
:102540001297E0E0F0E08A819B81009719F0FE018C
:10255000EC01F9CFCE01029628813981820F931FB9
:102560002091790530917A052817390769F4309759
:1025700029F410927C0510927B0502C0138212820E
:10258000D0937A05C0937905DF91CF9108956F922A
:102590007F928F929F92AF92BF92CF92DF92EF92F3
:1025A000FF920F931F93CF93DF93EC01CB01209702
:1025B00079F4DF91CF911F910F91FF90EF90DF9011
:1025C000CF90BF90AF909F908F907F906F90B8CE3C
:1025D000FE01E60FF71F9E0122503109E217F307B3
:1025E00008F4A8C0D9010D911C911197061717077F
:1025F000B0F00530110508F49BC0A8014450510902
:102600004617570708F494C002501109061B170B10
:10261000019311936D937C93CF012ADF89C05B01F5
:10262000A01AB10A4E01800E911EA0917B05B091B7
:102630007C05612C712C60E070E0109709F449C0B2
:10264000A815B905C9F5ED90FC901197670142E016
:10265000C40ED11CCA14DB0478F147018A189B0808
:10266000640142E0C40ED11C1296BC9012971396DE
:10267000AC91B5E0CB16D10440F0B282A383918235
:102680008082D9018D939C9309C00E5F1F4F0E0D60
:102690001F1DF90111830083EB2DFA2F61157105C0
:1026A00031F0DB011396FC93EE93129741C0F09347
:1026B0007C05E0937B053CC06D917C91119766167B
:1026C000770608F43B01BD0112960D90BC91A02D38
:1026D000B4CF6091790570917A0568157905E9F4B0
:1026E00068167906D0F4409100025091010241151C
:1026F000510541F44DB75EB7609104027091050237
:10270000461B570BE417F507A8F4F0937A05E093FE
:102710007905F901918380830BC012DE7C0100975B
:1027200049F0A801BE011BD0CE01A2DEC70104C042
:10273000CE0102C080E090E0DF91CF911F910F9118
:10274000FF90EF90DF90CF90BF90AF909F908F90D1
:102750007F906F90089581E090E0F89410C0FB01A5
:10276000DC0102C001900D9241505040D8F708950D
:10277000FB01DC0101900D920020E1F7089512E0C9
:10278000CEE2D2E000E005C022970109FE010BBFB6
:10279000D3DDC033D10780E00807B1F7F894FFCF4D
:1027A00000007D058000C80000007878787878788F
:1027B0007878787800787878787878787800060271
:1027C00002050003050104060204CC02D302DB0269
:1027D000E502EE02F502FE02050309030D031103F3
:1027E000150319031D0321032903320338033E0394
:1027F000420347034C0353035D0365036E037703F2
:102800007B037F0383033E0387038B038F039303C1
:1028100097039B039F0353797374656D2053746111
:102820007274696E6700426564726F6F6D204961F2
:10283000696E27732053696465003A000000000048
:10284000A10375034A0352036503740300000000EB
:102850002D06401097062B062C06321100000000B2
:102860002D0640100A0808071C07EE074D6F6E641E
:1028700061790054756573646179005765646E65AC
:10288000736461790054687572736461790046728B
:10289000696461790053617475726461790053757C
:1028A0006E646179004D6F6E005475650057656404
:1028B0000054687500467269005361740053756E68
:1028C000004A616E75617279004665627275617267
:1028D00079004D6172636800417072696C004D61EE
:1028E00079004A756E65004A756C790041756775A7
:1028F00073740053657074656D626572004F637424
:102900006F626572004E6F76656D62657200446538
:1029100063656D626572004A616E00466562004DD6
:10292000617200417072004A756E004A756C004118
:10293000756700536570004F6374004E6F760044F6
:1029400065630000000000D10E4010260E3F0E31DE
:102950000EB00E0D0A006E616E00696E66006F7635
:0429600066002E00DF
:00000001FF
