:100000000C945A000C9482000C9482000C94820090
:100010000C9482000C9482000C9482000C94820058
:100020000C9482000C9482000C9482000C94820048
:100030000C9482000C9482000C9482000C94820038
:100040000C9442070C9482000C94FC090C942E0A28
:100050000C9482000C9482000C9482000C94820018
:100060000C949A030C948200000000080002010026
:100070000003040700000000000000000102040863
:100080001020408001020408102001020408102002
:10009000040404040404040402020202020203032E
:1000A0000303030300000000250028002B00F001DB
:1000B000F8025E0A11241FBECFEFD8E0DEBFCDBF2D
:1000C00011E0A0E0B1E0EEE9FDE102C005900D9283
:1000D000A838B107D9F723E0A8E8B1E001C01D9224
:1000E000A132B207E1F710E0C4EBD0E004C02297E0
:1000F000FE010E94C40ECE3AD107C9F70E94710CCE
:100100000C94CD0E0C94000088E891E00E944A0502
:1001100040E060E088E891E00E94580560E171E00D
:1001200088E891E00C94DF0A88E891E00E944A0593
:1001300040E060E088E891E00E94580560E271E0EC
:1001400088E891E00E94DF0A41E060E088E891E001
:100150000E9458056DE271E088E891E00E94DF0A94
:100160004091AF015091B0016091B1017091B20125
:1001700022E030E088E891E00C946C0C8F929F9222
:10018000AF92BF92CF92DF92EF92FF920F931F93A5
:100190000E948C076093B3017093B4018093B50102
:1001A0009093B6018EE00E943B08BC01882777FD42
:1001B0008095982F0E94850D20E030E040EA50E4C1
:1001C0000E94390E20E030E040E85AE30E94390EE8
:1001D0006B017C016093AB017093AC018093AD0126
:1001E0009093AE018090040190900501A0900601CB
:1001F000B0900701209108013091090140910A0156
:1002000050910B01C501B4010E94820C9B01AC010D
:10021000C501B4010E94EA0C9B01AC01C701B60103
:100220000E94EA0C6093AF017093B0018093B1011A
:100230009093B2018FE00E943B089093AA018093B3
:10024000A901BC01882777FD8095982F0E94850D14
:1002500020E030E040E85AE30E94390E20E030E42C
:100260004CE955E40E94390E6B017C016093A501B5
:100270007093A6018093A7019093A801609100015B
:1002800070910101882777FD8095982F0E94850D38
:100290009B01AC01C701B6010E94810C6B017C017E
:1002A0006091020170910301882777FD8095982F56
:1002B0000E94850D9B01AC01C701B6010E94EA0CAA
:1002C0006093A1017093A2018093A3019093A40174
:1002D0002DEC3CEC4CEC5DE36091AF017091B00112
:1002E0008091B1019091B2010E94E60C87FF08C095
:1002F0001092AF011092B0011092B1011092B201B0
:1003000020910E018091B3019091B401A091B501AB
:10031000B091B6014091B7015091B8016091B90117
:100320007091BA01841B950BA60BB70B883E9340C6
:10033000A105B105E8F02130D9F00E949400809128
:100340000C0190910D01019690930D0180930C0189
:100350008091B3019091B401A091B501B091B60123
:100360008093B7019093B801A093B901B093BA01FB
:1003700080910E01882339F18091B3019091B401ED
:10038000A091B501B091B6014091B7015091B8016B
:100390006091B9017091BA018C019D01041B150B8C
:1003A000260B370BB901A801483B5B40610571057D
:1003B00050F010920E018093B7019093B801A09372
:1003C000B901B093BA011F910F91FF90EF90DF90A8
:1003D000CF90BF90AF909F908F9008950C94BE00E7
:1003E0008F92AF92CF92EF920F9387E0882E96E094
:1003F000A92E25E0C22E34E0E32E00E021E042E009
:1004000067E288E891E00E94A6060F91EF90CF90F6
:10041000AF908F90089520E044E064E188E891E097
:100420000E94270740E050E063E088E891E00E94E6
:10043000180661E088E891E00E942C0688E891E0C7
:100440000E9451050E948C076093B7017093B80118
:100450008093B9019093BA0126E040E855E260E04C
:1004600070E084E892E00E949A090C9484008091E4
:10047000EB0190E02091EC01821B910908952091FD
:10048000EC018091EB01281750F4E22FF0E0E351EA
:10049000FE4F808190E02F5F2093EC0108958FEF55
:1004A0009FEF0895E091EC018091EB01E81730F4A3
:1004B000F0E0E351FE4F808190E008958FEF9FEFD1
:1004C00008950895CF92DF92EF92FF920F931F93BA
:1004D000CF93DF937C01CB018A012091C7012223B6
:1004E00089F0EB016B01C40ED51ECC15DD0569F05A
:1004F0006991D701ED91FC910190F081E02DC70148
:100500000995F3CF642F0E947103C801DF91CF9149
:100510001F910F91FF90EF90DF90CF900895CF93B0
:10052000DF931F92CDB7DEB769832091C7012223E5
:10053000D1F02091C801203240F021E030E0FC01F0
:100540003383228380E090E015C08091C901E82FB9
:10055000F0E0E653FE4F998190838F5F8093C9014D
:100560008093C80105C061E0CE0101960E9471032D
:1005700081E090E00F90DF91CF910895FC0113820C
:10058000128248EE53E060E070E044835583668356
:1005900077838BE391E09183808308951092EC013F
:1005A0001092EB011092C9011092C8010C94FC0248
:1005B00081E08093C7016093EA011092C901109213
:1005C000C80108950F93062F21E04091C8016AECFD
:1005D00071E08091EA010E941A031092C901109201
:1005E000C8011092C7010F91089561E00C94E202D6
:1005F0008BEB91E00C94BE0210927A0281E0809322
:1006000078021092770261E082E10E94810861E045
:1006100083E10E948108E9EBF0E080818E7F808396
:1006200080818D7F808388E48093B80085E4809307
:10063000BC0008950F93413208F04AC090917A02AD
:100640009111FCCF92E090937A02009378029FEF91
:1006500090930D021092520240935102FB0163E508
:1006600072E0DB019A2F961B941718F491919D93D9
:10067000F9CF1092790290917902880F892B80939B
:10068000790280917702813061F410927702809133
:1006900079028093BB008091BC0083FDF8CF85EC8C
:1006A00001C085EE8093BC00222321F080917A0264
:1006B0008230E1F380910D028F3F61F080910D0255
:1006C000803251F080910D02803341F483E007C005
:1006D00081E005C080E003C082E001C084E00F91AA
:1006E0000895613298F420917A02243089F460935D
:1006F0002F02FC0181E392E0DC012A2F281B261740
:1007000018F421912D93F9CF80E0089581E00895A8
:1007100082E0089585ED8093BC008091BC0084FD4B
:10072000FCCF10927A02089585EC8093BC00109261
:100730007A0208951F920F920FB60F9211242F93F1
:100740003F934F935F936F937F938F939F93AF9359
:10075000BF93EF93FF938091B900887F803609F4AF
:100760009EC078F5883209F45DC090F4803109F4B8
:1007700056C038F4882309F4F5C0883009F44FC016
:10078000F5C0883109F44EC0803209F45FC0EEC074
:10079000803409F46AC058F4803309F457C08833B0
:1007A00009F0E4C080930D020E949403DFC08035FD
:1007B00009F44FC0883509F45DC0883409F0D6C00B
:1007C000D3C0883909F4C4C0A8F4883709F467C0D5
:1007D00038F4883609F463C0803709F460C0C6C0B5
:1007E000883809F4B5C0803909F45FC0803809F051
:1007F000BDC05BC0803B09F483C038F4803A09F483
:1008000066C0883A09F47CC0B1C0803C09F4A4C039
:10081000883C09F4A1C0883B09F487C0A7C0809137
:10082000790210C09091520280915102981770F590
:10083000E091520281E08E0F80935202F0E0ED5A77
:10084000FD4F80818093BB0085EC83C080930D02B7
:100850008BC0E091520281E08E0F80935202809112
:10086000BB00F0E0ED5AFD4F8083909152028091E1
:1008700051026BC0E091520281E08E0F80935202D0
:100880008091BB00F0E0ED5AFD4F808380917802AB
:1008900081116AC081E08093770284EA5EC083E0C0
:1008A00080937A0210920E02CFCF80910E02803296
:1008B00008F04EC0E0910E0281E08E0F80930E0290
:1008C0008091BB00F0E0E15FFD4F8083BDCF0E94CF
:1008D000940380910E02803230F4E0910E02F0E039
:1008E000E15FFD4F108260910E0270E0E0917302B3
:1008F000F09174028FE092E0099510920E0236C0DA
:1009000084E080937A021092300210922F02E091DC
:100910007502F0917602099580912F02811105C030
:1009200081E080932F0210923102E091300281E049
:100930008E0F80933002F0E0EF5CFD4F808180935A
:10094000BB009091300280912F02981708F47CCF61
:1009500085E88093BC000AC085EC8093BC001092AF
:100960007A0204C010920D020E948A03FF91EF9157
:10097000BF91AF919F918F917F916F915F914F91B7
:100980003F912F910F900FBE0F901F901895FC0173
:1009900012828FEF8183108213820895FC0183817C
:1009A000882331F0611103C08FEF81830895118294
:1009B00008958BEB91E00E94D8028BEB91E00E94AE
:1009C000F50291E0811190E0892F0895CF93DF9394
:1009D000EC016A838BEB91E00E94CE026A81CE012A
:1009E0000E94D9048B83882329F08BEB91E00E942D
:1009F0003F0288838B8190E0DF91CF910895CF9360
:100A0000DF93EC018B818823A9F08981809586236F
:100A100088836A818BEB91E00E94D80268818BEB1E
:100A200091E00E948F028BEB91E00E94F502282F4B
:100A300030E002C020E030E081E090E0232B11F0B4
:100A400080E090E0DF91CF91089508950895DC0152
:100A5000ED91FC910284F385E02D41E0099581E060
:100A600090E00895FC01138212822BE431E031837F
:100A700020830895DC01ED91FC910084F185E02D47
:100A80006FEF0994DC01ED91FC910284F385E02D78
:100A900040E0099461E00E94420580ED97E00C94EB
:100AA000F50762E00E94420580ED97E00C94F5079F
:100AB000CF93DF93CDB7DEB728970FB6F894DEBF9C
:100AC0000FBECDBF1D8220E42E8334E13F8334E589
:100AD000388719822A8320E12B8320E52C83FC01AF
:100AE0002781421710F04FEF420FFC01308550E094
:100AF000FE01E40FF51F303121F4243011F421817F
:100B000001C02581260F2068622F28960FB6F89421
:100B1000DEBF0FBECDBFDF91CF910C944205FC012B
:100B20006581262F246025836C600C944205CF9349
:100B3000DF93EC01423018F08C8188608C834F8306
:100B40006887222329F0413019F48C8184608C83DA
:100B500064E670E080E090E00E94BB076C8164FD79
:100B600031C0E881F9810284F385E02D42E063E041
:100B7000CE01099584E991E10E94F507E881F981A8
:100B80000284F385E02D42E063E0CE01099586E919
:100B900090E00E94F507E881F9810284F385E02D59
:100BA00042E063E0CE01099586E990E00E94F507F6
:100BB000E881F9810284F385E02D42E062E0CE0114
:100BC000099516C06062CE010E94420584E991E158
:100BD0000E94F5076C816062CE010E94420586E9A1
:100BE00090E00E94F5076C816062CE010E94420590
:100BF00086E990E00E94F5076C816062CE010E9458
:100C000042058CE390E00E94F50784E08D83CE01DD
:100C10000E948F05CE010E944A0582E08E8366E025
:100C2000CE010E944205CE01DF91CF910C943A058E
:100C300021E001C0220F6A95EAF7DC011C962C9393
:100C40001C971A965C934E931997ED91FC91008432
:100C5000F185E02D60E00994FC012485222399F0C0
:100C600081859285009719F4611105C006C001972E
:100C700021F4611102C0258701C015866585CF0169
:100C80000E960C94FF0408950F931F93CF93DF9358
:100C9000EC018C01025F1F4F6B85C8010E94E604C6
:100CA000019761F461E0C8010E94CE041C8260E0FB
:100CB000C8010E94FF0481E090E002C080E090E063
:100CC000DF91CF911F910F9108958F92AF92CF92A4
:100CD000EF920F93CF93DF93CDB7DEB7FC0163871D
:100CE000148615861286118681E0982F01C0990F0F
:100CF0004A95EAF7928B982F01C0990F2A95EAF747
:100D0000938B982F01C0990F0A95EAF7948B982F2F
:100D100001C0990FEA94EAF7958B982F01C0990FBB
:100D2000CA94EAF7968B982F01C0990FAA94EAF714
:100D3000978B01C0880F8A94EAF7808FDF91CF915B
:100D40000F91EF90CF90AF908F9008956F927F9218
:100D50008F92AF92CF92EF920F93CF93DF9300D009
:100D60001F92CDB7DEB73C012B834A8369830E9473
:100D700032058BE591E0F30191838083C3010E96E8
:100D80000E94C7042B814A816981C3010E946506C4
:100D90000F900F900F90DF91CF910F91EF90CF9028
:100DA000AF908F907F906F900895FF920F931F9355
:100DB000CF93DF93EC01F62E8C01025F1F4F6A89FF
:100DC0006F29C8010E94FF046A8960956F21C801DC
:100DD000DF91CF911F910F91FF900C94FF0420E0C1
:100DE00030E050E060FF05C0FC01E20FF31F7589A1
:100DF000572B66952F5F3F4F2430310599F74130CF
:100E000011F4FC014489FC016585652B642B0C946D
:100E1000D5060F931F93CF93DF93EC01142F062F6A
:100E20000F70423011F440E00AC070E084E0759524
:100E300067958A95E1F7CE010E94EF06412F602F5A
:100E4000CE01DF91CF911F910F910C94EF060F937C
:100E50001F93CF93DF9300D01F92CDB7DEB78C01E5
:100E60002B834A8369830E9444062B814A816981CE
:100E7000C8010F900F900F90DF91CF911F910F91AC
:100E80000C9497051F920F920FB60F9211242F9377
:100E90003F938F939F93AF93BF9380917C029091E8
:100EA0007D02A0917E02B0917F0230917B0223E00F
:100EB000230F2D3720F40196A11DB11D05C026E892
:100EC000230F0296A11DB11D20937B0280937C020B
:100ED00090937D02A0937E02B0937F028091800266
:100EE00090918102A0918202B09183020196A11D8E
:100EF000B11D8093800290938102A0938202B093EF
:100F00008302BF91AF919F918F913F912F910F904D
:100F10000FBE0F901F9018952FB7F89460917C0228
:100F200070917D0280917E0290917F022FBF089583
:100F30003FB7F8948091800290918102A091820243
:100F4000B091830226B5A89B05C02F3F19F00196EA
:100F5000A11DB11D3FBF6627782F892F9A2F620FE1
:100F6000711D811D911D42E0660F771F881F991F1B
:100F70004A95D1F708958F929F92AF92BF92CF92E8
:100F8000DF92EF92FF926B017C010E9498074B0168
:100F90005C01C114D104E104F104F1F00E94800C61
:100FA0000E949807681979098A099B09683E73406D
:100FB0008105910570F321E0C21AD108E108F1081A
:100FC00088EE880E83E0981EA11CB11CC114D104C8
:100FD000E104F10429F7DDCFFF90EF90DF90CF908F
:100FE000BF90AF909F908F9008958230910538F018
:100FF000880F991F880F991F05970197F1F708959A
:10100000789484B5826084BD84B5816084BD85B5E3
:10101000826085BD85B5816085BDEEE6F0E08081AA
:1010200081608083E1E8F0E01082808182608083CB
:10103000808181608083E0E8F0E08081816080834E
:10104000E1EBF0E0808184608083E0EBF0E0808180
:1010500081608083EAE7F0E0808184608083808122
:1010600082608083808181608083808180688083CA
:101070001092C10008958E3008F08E508770209134
:101080000F0190E4299F90011124822B80937C0012
:1010900080917A00806480937A0080917A0086FD46
:1010A000FCCF809178002091790090E0922B0895F8
:1010B000833081F028F4813099F08230A1F00895D6
:1010C0008730A9F08830B9F08430D1F48091800065
:1010D0008F7D03C0809180008F778093800008957A
:1010E00084B58F7702C084B58F7D84BD08958091CB
:1010F000B0008F7703C08091B0008F7D8093B000E7
:1011000008950F931F93CF93DF931F92CDB7DEB750
:10111000282F30E0F901E859FF4F8491F901E45894
:10112000FF4F1491F901E057FF4F04910023C9F0DC
:10113000882321F069830E9458086981E02FF0E03C
:10114000EE0FFF1FEC55FF4FA591B4919FB7F89498
:101150008C91611103C01095812301C0812B8C9368
:101160009FBF0F90DF91CF911F910F910895FC01C8
:10117000818D228D90E0805C9F4F821B91098F733F
:1011800099270895FC01918D828D981731F0828DF9
:10119000E80FF11D858D90E008958FEF9FEF089582
:1011A000FC01918D828D981761F0828DDF01A80F6F
:1011B000B11D5D968C91928D9F5F9F73928F90E091
:1011C00008958FEF9FEF089584E59AE0892B49F009
:1011D00080E090E0892B29F00E94540A81110C9440
:1011E00000000895FC01848DDF01A80FB11DA35AF2
:1011F000BF4F2C91848D90E001968F739927848F37
:10120000A689B7892C93A089B1898C9180648C932D
:10121000938D848D981306C00288F389E02D808118
:101220008F7D80830895CF93DF93EC01888D882391
:10123000C9F0EA89FB89808185FD05C0A889B98943
:101240008C9186FD0FC00FB607FCF5CF808185FF1E
:10125000F2CFA889B9898C9185FFEDCFCE010E948C
:10126000F208E7CFDF91CF910895CF92DF92FF92FE
:101270000F931F93CF93DF931F92CDB7DEB76C010F
:1012800081E0D60158968C9358975B969C915B971A
:101290005C968C915C97981307C05096ED91FC91E9
:1012A0005197808185FD2EC0F601038D10E00F5F00
:1012B0001F4F0F731127F02EF601848DF81211C005
:1012C0000FB607FCF9CFD6015096ED91FC915197DE
:1012D000808185FFF1CFC60169830E94F208698190
:1012E000EBCF838DE80FF11DE35AFF4F6083D601EA
:1012F0005B960C935B975296ED91FC91539780818E
:1013000080620CC0D6015696ED91FC915797608390
:101310005096ED91FC91519780818064808381E0AB
:1013200090E00F90DF91CF911F910F91FF90DF9090
:10133000CF900895BF92CF92DF92EF92FF92CF931A
:10134000DF93EC016A017B01B22EE889F98982E022
:101350008083411581EE580761057105A1F060E0B9
:1013600079E08DE390E0A70196010E94A00E215044
:10137000310941095109569547953795279521150A
:1013800080E1380798F0E889F989108260E874E80C
:101390008EE190E0A70196010E94A00E2150310934
:1013A000410951095695479537952795EC85FD8557
:1013B0003083EE85FF852083188EEC89FD89B0820D
:1013C000EA89FB89808180618083EA89FB89808149
:1013D00088608083EA89FB89808180688083EA89CC
:1013E000FB8980818F7D8083DF91CF91FF90EF908B
:1013F000DF90CF90BF9008951F920F920FB60F927B
:1014000011242F938F939F93EF93FF93E091940276
:10141000F09195028081E0919A02F0919B0282FD09
:1014200012C0908180919D028F5F8F7320919E02E8
:10143000821751F0E0919D02F0E0EC57FD4F958F3F
:1014400080939D0201C08081FF91EF919F918F91C8
:101450002F910F900FBE0F901F9018951F920F9213
:101460000FB60F9211242F933F934F935F936F9377
:101470007F938F939F93AF93BF93EF93FF9384E8F2
:1014800092E00E94F208FF91EF91BF91AF919F917E
:101490008F917F916F915F914F913F912F910F901D
:1014A0000FBE0F901F90189584E892E00E94B70835
:1014B00021E0892B09F420E0822F08951092870201
:1014C0001092860288EE93E0A0E0B0E0809388025C
:1014D00090938902A0938A02B0938B028BE691E0ED
:1014E000909385028093840285EC90E09093910222
:1014F0008093900284EC90E0909393028093920208
:1015000080EC90E0909395028093940281EC90E0BF
:10151000909397028093960282EC90E090939902C8
:101520008093980286EC90E090939B0280939A02BD
:1015300010929D0210929E0210929F021092A002A1
:101540000895CF92DF92EF92FF920F931F93CF9364
:10155000DF937C016A01EB0100E010E00C151D0532
:1015600071F06991D701ED91FC910190F081E02D2E
:10157000C7010995892B19F00F5F1F4FEFCFC801E5
:10158000DF91CF911F910F91FF90EF90DF90CF905F
:1015900008956115710581F0DB010D900020E9F7D8
:1015A000AD0141505109461B570BDC01ED91FC91F7
:1015B0000280F381E02D099480E090E008950C947E
:1015C000C90ADC01ED91FC910190F081E02D0994B4
:1015D0008F929F92AF92BF92DF92EF92FF920F9302
:1015E0001F93CF93DF93CDB7DEB7A1970FB6F894D3
:1015F000DEBF0FBECDBF7C01F42FD52ECB0119A2CB
:10160000223008F42AE08E010F5D1F4F822E912CAC
:10161000A12CB12C6F2F7D2DA50194010E94A00E4D
:10162000F22FD32ECA01015011096A3014F4E0E3FD
:1016300001C0E7E3E60FD801EC93232B242B252BE5
:1016400049F7B801C7010E94C90AA1960FB6F894DC
:10165000DEBF0FBECDBFDF91CF911F910F91FF90E5
:10166000EF90DF90BF90AF909F908F900895CF92B2
:10167000DF92EF92FF920F931F93CF93DF93EC01D2
:101680006A017B012115310579F4E881F981019026
:10169000F081E02D642FDF91CF911F910F91FF908A
:1016A000EF90DF90CF9009942A303105E9F477FF6D
:1016B0001AC06DE20E94E10A8C0144275527BA0145
:1016C0004C195D096E097F092AE0CE010E94E80AE3
:1016D000800F911FDF91CF911F910F91FF90EF909D
:1016E000DF90CF9008952AE0B701A601CE01DF91E7
:1016F000CF911F910F91FF90EF90DF90CF900C94BE
:10170000E80A4F925F926F927F928F929F92AF9270
:10171000BF92CF92DF92EF92FF920F931F93CF93DE
:10172000DF93EC016A017B01B22E9A01AB01C70184
:10173000B6010E949C0E882319F06AE771E027C069
:1017400026013701E89477F82FEF3FEF4FE75FE787
:10175000C301B2010E949C0E81110DC02FEF3FEF1B
:101760004FE75FE7C301B2010E94E60C18161CF4B4
:101770006EE771E00CC02FEF3FEF4FE75FE4C7016A
:10178000B6010E94350E1816ACF462E871E0CE0185
:10179000DF91CF911F910F91FF90EF90DF90CF904D
:1017A000BF90AF909F908F907F906F905F904F9081
:1017B0000C94C90A2FEF3FEF4FE75FECC701B6016A
:1017C0000E94E60C87FDE1CF20E030E0A901C701CF
:1017D000B6010E94E60C87FF0AC06DE2CE010E94AE
:1017E000E10A8C01F7FAF094F7F8F09402C000E0F7
:1017F00010E0A12C60E070E080E09FE3AB1441F0CA
:1018000020E030E040E251E40E94EA0CA394F6CFDD
:101810009B01AC01C701B6010E94820C6B017C01E7
:101820000E94570D2B013C010E94830D9B01AC01CE
:10183000C701B6010E94810C6B017C012AE0B30153
:10184000A201CE010E94E80A080F191FBB2039F03F
:1018500066E871E0CE010E94C90A080F191F7B2CAF
:10186000772041F120E030E040E251E4C701B601C9
:101870000E94390E6B017C010E94520D4B01AA247B
:1018800097FCA094BA2C2AE030E0B501A401CE0167
:101890000E94370B080F191FC501B4010E94850D66
:1018A0009B01AC01C701B6010E94810C6B017C0158
:1018B0007A94D6CFC801DF91CF911F910F91FF90FD
:1018C000EF90DF90CF90BF90AF909F908F907F90E0
:1018D0006F905F904F9008950C94810B0E94C80EFA
:1018E00008950E9400080E94700C0E940B02C4EE32
:1018F000D8E00E94EE012097E1F30E94E408F9CFBE
:1019000008955058BB27AA270ED075C166D130F074
:101910006BD120F031F49F3F11F41EF45BC10EF443
:10192000E095E7FB51C1E92F77D180F3BA17620741
:1019300073078407950718F071F49EF58FC10EF4B4
:10194000E0950B2EBA2FA02D0B01B90190010C01CF
:10195000CA01A0011124FF27591B99F0593F50F4E7
:10196000503E68F11A16F040A22F232F342F44273F
:10197000585FF3CF469537952795A795F040539537
:10198000C9F77EF41F16BA0B620B730B840BBAF007
:101990009150A1F0FF0FBB1F661F771F881FC2F772
:1019A0000EC0BA0F621F731F841F48F48795779586
:1019B0006795B795F7959E3F08F0B3CF9395880F3D
:1019C00008F09927EE0F979587950895D9D008F4D8
:1019D00081E008950CD00FC107D140F0FED030F067
:1019E00021F45F3F19F0F0C0511139C1F3C014D197
:1019F00098F39923C9F35523B1F3951B550BBB27D6
:101A0000AA2762177307840738F09F5F5F4F220F82
:101A1000331F441FAA1FA9F333D00E2E3AF0E0E87B
:101A200030D091505040E695001CCAF729D0FE2FC7
:101A300027D0660F771F881FBB1F26173707480759
:101A4000AB07B0E809F0BB0B802DBF01FF2793580F
:101A50005F4F2AF09E3F510568F0B6C000C15F3F5E
:101A6000ECF3983EDCF3869577956795B795F795F7
:101A70009F5FC9F7880F911D9695879597F90895EF
:101A8000E1E0660F771F881FBB1F6217730784078B
:101A9000BA0720F0621B730B840BBA0BEE1F88F79A
:101AA000E095089504D06894B111D9C00895BCD0D0
:101AB00088F09F5790F0B92F9927B751A0F0D1F037
:101AC000660F771F881F991F1AF0BA95C9F712C0C1
:101AD000B13081F0C3D0B1E00895C0C0672F782F36
:101AE0008827B85F39F0B93FCCF38695779567952D
:101AF000B395D9F73EF490958095709561957F4F99
:101B00008F4F9F4F0895E89409C097FB3EF490953E
:101B10008095709561957F4F8F4F9F4F9923A9F0C6
:101B2000F92F96E9BB279395F69587957795679555
:101B3000B795F111F8CFFAF4BB0F11F460FF1BC099
:101B40006F5F7F4F8F4F9F4F16C0882311F096E92C
:101B500011C0772321F09EE8872F762F05C06623DA
:101B600071F096E8862F70E060E02AF09A95660F93
:101B7000771F881FDAF7880F9695879597F908954C
:101B8000990F0008550FAA0BE0E8FEEF161617068E
:101B9000E807F907C0F012161306E407F50798F0F6
:101BA000621B730B840B950B39F40A2661F0232B0F
:101BB000242B252B21F408950A2609F4A140A6958B
:101BC0008FEF811D811D089597F99F6780E870E070
:101BD00060E008959FEF80EC089500240A941616A3
:101BE000170618060906089500240A94121613060B
:101BF000140605060895092E0394000C11F4882399
:101C000052F0BB0F40F4BF2B11F460FF04C06F5FB4
:101C10007F4F8F4F9F4F089557FD9058440F551F8A
:101C200059F05F3F71F04795880F97FB991F61F05E
:101C30009F3F79F087950895121613061406551FD5
:101C4000F2CF4695F1DF08C0161617061806991F41
:101C5000F1CF86957105610508940895E894BB2736
:101C600066277727CB0197F908958ADF08F48FEF6D
:101C700008950BD0C0CFB1DF28F0B6DF18F0952360
:101C800009F0A2CFA7CF1124EACFC6DFA0F3959F1A
:101C9000D1F3950F50E0551F629FF001729FBB2753
:101CA000F00DB11D639FAA27F00DB11DAA1F649FFF
:101CB0006627B00DA11D661F829F2227B00DA11DB2
:101CC000621F739FB00DA11D621F839FA00D611D38
:101CD000221F749F3327A00D611D231F849F600D59
:101CE000211D822F762F6A2F11249F5750408AF092
:101CF000E1F088234AF0EE0FFF1FBB1F661F771F1E
:101D0000881F91505040A9F79E3F510570F05CCF5D
:101D1000A6CF5F3FECF3983EDCF386957795679509
:101D2000B795F795E7959F5FC1F7FE2B880F911D3B
:101D30009695879597F9089523DF880B990B089559
:101D4000A1E21A2EAA1BBB1BFD010DC0AA1FBB1FBF
:101D5000EE1FFF1FA217B307E407F50720F0A21B31
:101D6000B30BE40BF50B661F771F881F991F1A949E
:101D700069F760957095809590959B01AC01BD01C8
:101D8000CF010895EE0FFF1F0590F491E02D099407
:0E1D900081E090E0F8940C94CD0EF894FFCF13
:101D9E00C409B90000401C460050C34701000101B0
:101DAE0053797374656D205374617274696E670034
:101DBE00506F7765722053797374656D00566F6C32
:101DCE00746167653D2000000000008F02620237DB
:101DDE00023F0252026102000000002705A10A978D
:101DEE0005250526056E0C000000002705A10A2713
:101DFE000718062C060907000000003509A10AB7CE
:101E0E0008D008C20813090D0A006E616E00696ED3
:081E1E0066006F7666002E00DD
:00000001FF
